S01F00007469736C613030325F646973706C61795F6472697665722E7372656316
S113000045C0000060C000005EC000005CC000008D
S11300105AC0000058C0000056C0000054C0000080
S113002052C0000050C000004EC000004CC0000090
S11300304AC000007EC0000046C0000044C000006A
S113004042C0000040C000003EC000003CC00000B0
S11300503AC0000038C0000036C0000034C00000C0
S113006032C0000030C000002EC000002CC00000D0
S11300702AC0000028C0000026C0000024C00000E0
S113008022C0000020C000001EC0000011241FBEBA
S1130090CFEFD0E4DEBFCDBF11E0A0E0B1E0E4EDEE
S11300A0F2E000E00BBF02C007900D92A432B1074A
S11300B0D9F721E0A4E2B1E001C01D92AF32B2074A
S11300C0E1F7F5D005C19CCF609320017093210125
S11300D0809322019093230160932A0170932B0152
S11300E080932C0190932D0108958BE080938100DF
S11300F08DE790E0909389008093880082E080935C
S11301006F001092850010928400809120019091DC
S11301102101A0912201B091230180932A0190939F
S11301202B01A0932C01B0932D018FB780688FBF52
S113013008951F920F920FB60F9211248F939F93DD
S1130140AF93BF9380912A0190912B01A0912C0130
S1130150B0912D010197A109B10980932A019093CF
S11301602B01A0932C01B0932D01892B8A2B8B2B6F
S113017099F481E080932E018091200190912101D6
S1130180A0912201B091230180932A0190932B0125
S1130190A0932C01B0932D01BF91AF919F918F91AA
S11301A00F900FBE0F901F90189520E030E058E09C
S11301B0E82FF0E058B948B1BF01022E02C075958E
S11301C067950A94E2F7962F9170942B98B9419A07
S11301D02F5F3F4F2830310569F7429A18B80895C8
S11301E020E030E058E0E82FF0E052B942B1BF011E
S11301F0022E02C0759567950A94E2F7962F9170C6
S1130200942B92B9119A2F5F3F4F2830310569F72B
S1130210129A12B808950F931F93CF93DF93C0914E
S11302202801D0912901C031D105C4F5809126015E
S113023090912701823391053CF50091240110919E
S1130240250108301105B4F4F801E050FF4F808116
S113025090E0ABDFC85FDE4FC00FD11F888190E014
S113026080959095BDDF0F5F1F4F1093250100937C
S1130270240118C010922501109224010196909334
S11302802701809326010EC01092270110922601A7
S11302902196D0932901C093280104C0109229010A
S11302A010922801DF91CF911F910F9108958FEF44
S11302B081B987B961E070E080E090E005DF15DF87
S11302C080912E018823E1F3A6DF10922E01F8CF4E
S10702D0F894FFCFCC
S11302D401020408102040800101011919190101C7
S11302E41D1D0D0D010101010101010101010101A6
S10702F40100000001
S9030000FC
