:1000000045C0000062C0000060C000005EC000008B
:100010005CC000005AC0000058C0000056C000007C
:1000200054C0000052C0000050C000004EC000008C
:100030004CC000000C94D40D48C0000046C0000025
:1000400044C0000042C0000040C000003EC00000AC
:100050003CC000003AC0000038C0000036C00000BC
:1000600034C0000032C0000030C000002EC00000CC
:100070002CC000002AC0000028C0000026C00000DC
:1000800024C0000022C0000020C0000011241FBEB8
:10009000CFEFD0E4DEBFCDBF13E0A0E0B1E0EEEBE8
:1000A000FBE200E00BBF02C007900D92AC33B1073A
:1000B000D9F723E0ACE3B3E001C01D92AD38B2073D
:1000C000E1F70E9455120C94DD159ACFCF93DF9380
:1000D0001F92CDB7DEB7898389818130E1F081EC51
:1000E00090E021EC30E0F90120812861FC012083BF
:1000F00082EC90E022EC30E0F90120812660FC01E6
:10010000208384EC90E023E3FC01208385EC90E0E5
:10011000FC0110821BC089EC90E029EC30E0F90171
:1001200020812861FC0120838AEC90E02AEC30E0F9
:10013000F90120812660FC0120838CEC90E023E310
:10014000FC0120838DEC90E0FC01108200000F90F8
:10015000DF91CF910895CF93DF931F92CDB7DEB794
:1001600089838981813031F080EC90E0FC018081CD
:10017000807805C088EC90E0FC01808180780F9049
:10018000DF91CF910895CF93DF931F92CDB7DEB764
:1001900089838981813061F0000080EC90E0FC016E
:1001A00080818823D4F786EC90E0FC0180810BC02D
:1001B000000088EC90E0FC0180818823D4F78EEC6D
:1001C00090E0FC0180810F90DF91CF9108950F9313
:1001D0001F93CF93DF93CDB7DEB7CF56D1090FB6BC
:1001E000F894DEBF0FBECDBF9E0121593F4FF901EC
:1001F00080838BE290E02BE230E0F9012081422FF6
:100200004F709E0121593F4FF9012081207F242BFF
:10021000FC0120838BE290E02BE230E0F9012081A9
:100220002B7FFC0120838BE290E02BE230E0F90190
:1002300020812860FC01208380E090E0A0E8BFE3FB
:1002400089839A83AB83BC838E010D5A1F4F2BEA9F
:100250003AEA4AEA5EE369817A818B819C810E9455
:100260007A15DC01CB01F80180839183A283B383EB
:100270008E01095A1F4F20E030E040E85EE36981BB
:100280007A818B819C810E947A15DC01CB01F80177
:1002900080839183A283B383CE018D5A9F4F20E048
:1002A00030E040E85FE3FC016081718182819381ED
:1002B0000E94641488233CF4CE01855A9F4F21E0AC
:1002C000FC0120832CC1CE01895A9F4F20E03FEFD3
:1002D0004FE757E4FC0160817181828193810E9424
:1002E000761518160CF0CDC020E030E04AE754E453
:1002F00069817A818B819C810E946814DC01CB0129
:100300009E01245A3F4FF90180839183A283B383D6
:100310008E01005A1F4FCE01845A9F4F20E030E0DB
:100320004AE753E4FC0160817181828193810E94DC
:100330007A15DC01CB01F80180839183A283B3831A
:10034000CE01805A9F4F20E030E040E85FE3FC019F
:1003500060817181828193810E94641488234CF4AE
:10036000CE018C599F4F21E030E0FC013183208386
:100370006DC0CE01805A9F4F20E03FEF4FE757E41A
:10038000FC0160817181828193810E94761518162B
:100390000CF04AC0CE01845A9F4F20E030E040E28A
:1003A00051E4FC0160817181828193810E947A1500
:1003B000DC01CB018E010C591F4FBC01CD010E9405
:1003C000D514DC01CB01F8019183808324C0CE01D8
:1003D0008A599F4F29E130E0FC0131832083CE010F
:1003E0008A599F4FFC01808191810197F1F79E010D
:1003F0002A593F4FF90191838083CE018C599F4F39
:100400009E012C593F4FF901208131812150310942
:10041000FC0131832083CE018C599F4FFC018081E8
:100420009181892BA1F67BC08E010C591F4FCE0103
:10043000805A9F4FFC0160817181828193810E946B
:10044000D514DC01CB01F80191838083CE0188595A
:100450009F4F9E012C593F4FF90120813181FC01B2
:1004600031832083CE0188599F4FFC018081918187
:100470000197F1F79E0128593F4FF901918380833D
:100480004EC0CE018D5A9F4F20E030E04FE753E43D
:10049000FC0160817181828193810E94761518161A
:1004A0006CF58E0106591F4FCE01895A9F4FFC01F2
:1004B00060817181828193810E94D514DC01CB011E
:1004C000F80191838083CE0184599F4F9E01265964
:1004D0003F4FF90120813181FC0131832083CE011E
:1004E00084599F4FFC01808191810197F1F79E0112
:1004F00024593F4FF9019183808328C08E01055A0A
:100500001F4FCE018D5A9F4FFC0160817181828106
:1005100093810E94D514DC01CB01F8018083CE01C8
:1005200082599F4F9E01255A3F4FF9012081FC01BE
:100530002083CE0182599F4FFC018081282F2A956C
:10054000F1F7CE0182599F4FFC0120838BE290E0AE
:100550002BE230E0F9012081277FFC01208380E03D
:1005600090E0A8E4B3E48D839E83AF83B8872BEA41
:100570003AEA4AEA5EE36D817E818F8198850E9426
:100580007A15DC01CB018FAB98AFA9AFBAAF20E0F1
:1005900030E040E85EE36D817E818F8198850E9426
:1005A0007A15DC01CB018BAF9CAFADAFBEAF20E0C5
:1005B00030E040E85FE36FA978AD89AD9AAD0E9465
:1005C000641488231CF481E08FAF18C120E03FEF52
:1005D0004FE757E46BAD7CAD8DAD9EAD0E947615B7
:1005E00018160CF0CDC020E030E04AE754E46D81ED
:1005F0007E818F8198850E946814DC01CB019E0169
:10060000205C3F4FF90180839183A283B3838E01E5
:100610000C5B1F4FCE01805C9F4F20E030E04AE72B
:1006200053E4FC0160817181828193810E947A157B
:10063000DC01CB01F80180839183A283B383CE01D7
:100640008C5B9F4F20E030E040E85FE3FC0160817D
:100650007181828193810E94641488234CF4CE01BD
:10066000885B9F4F21E030E0FC01318320836DC027
:10067000CE018C5B9F4F20E03FEF4FE757E4FC013A
:1006800060817181828193810E94761518160CF029
:100690004AC0CE01805C9F4F20E030E040E251E450
:1006A000FC0160817181828193810E947A15DC0155
:1006B000CB018E01085B1F4FBC01CD010E94D514F8
:1006C000DC01CB01F8019183808324C0CE01865BDD
:1006D0009F4F29E130E0FC0131832083CE01865B0E
:1006E0009F4FFC01808191810197F1F79E01265B6C
:1006F0003F4FF90191838083CE01885B9F4F9E011C
:10070000285B3F4FF9012081318121503109FC01E3
:1007100031832083CE01885B9F4FFC0180819181D2
:10072000892BA1F66BC08E01085B1F4FCE018C5B3D
:100730009F4FFC0160817181828193810E94D51459
:10074000DC01CB01F80191838083CE01845B9F4F54
:100750009E01285B3F4FF90120813181FC013183EB
:100760002083CE01845B9F4FFC01808191810197A2
:10077000F1F79E01245B3F4FF901918380833EC0D6
:1007800020E030E04FE753E46FA978AD89AD9AAD32
:100790000E94761518164CF58E01025B1F4F6BAD4B
:1007A0007CAD8DAD9EAD0E94D514DC01CB01F8016E
:1007B00091838083CE01805B9F4F9E01225B3F4FE0
:1007C000F90120813181FC0131832083CE01805BDE
:1007D0009F4FFC01808191810197F1F79E01205B81
:1007E0003F4FF901918380831CC06FA978AD89AD1B
:1007F0009AAD0E94D514DC01CB018FAFCE018E5A89
:100800009F4F2FADFC012083CE018E5A9F4FFC01DC
:100810008081282F2A95F1F7CE018E5A9F4FFC0137
:1008200020838BE290E02BE230E0F9012081422F1F
:100830004F709E0121593F4FF9012081222F30E056
:1008400022953295307F3227207F3227242BFC01DE
:1008500020838BE290E02BE230E0F90120812860D8
:10086000FC01208380E090E0A0E8BFE389879A87BD
:10087000AB87BC872BEA3AEA4AEA5EE369857A8568
:100880008B859C850E947A15DC01CB018B8F9C8F18
:10089000AD8FBE8F20E030E040E85EE369857A8569
:1008A0008B859C850E947A15DC01CB018F8F98A3E4
:1008B000A9A3BAA320E030E040E85FE36B8D7C8D14
:1008C0008D8D9E8D0E94641488231CF481E08BA37F
:1008D000B2C020E03FEF4FE757E46F8D78A189A1C8
:1008E0009AA10E94761518160CF07BC020E030E02B
:1008F0004AE754E469857A858B859C850E94681453
:10090000DC01CB018CA39DA3AEA3BFA320E030E00C
:100910004AE753E46CA17DA18EA19FA10E947A15A4
:10092000DC01CB0188A799A7AAA7BBA720E030E0EC
:1009300040E85FE368A579A58AA59BA50E94641499
:1009400088232CF481E090E09DA78CA73FC020E095
:100950003FEF4FE757E468A579A58AA59BA50E94BC
:10096000761518164CF520E030E040E251E46CA119
:100970007DA18EA19FA10E947A15DC01CB01BC0153
:10098000CD010E94D514DC01CB019DA78CA70FC01F
:1009900089E190E09FA78EA78EA59FA50197F1F70B
:1009A0009FA78EA78CA59DA501979DA78CA78CA519
:1009B0009DA5892B69F73FC068A579A58AA59BA548
:1009C0000E94D514DC01CB019DA78CA78CA59DA509
:1009D00099AB88AB88A999A90197F1F799AB88AB36
:1009E0002AC020E030E04FE753E46B8D7C8D8D8D85
:1009F0009E8D0E9476151816ACF46F8D78A189A192
:100A00009AA10E94D514DC01CB019BAB8AAB8AA9C9
:100A10009BA99DAB8CAB8CA99DA90197F1F79DABD0
:100A20008CAB0FC06B8D7C8D8D8D9E8D0E94D514EF
:100A3000DC01CB018BA38BA18EAB8EA98A95F1F73C
:100A40008EAB8BE290E02BE230E0F9012081277F32
:100A5000FC01208380E090E0A0E0B0E48D879E87D9
:100A6000AF87B88B20E030E04AE753E46D857E85A0
:100A70008F8598890E947A15DC01CB01898B9A8B2E
:100A8000AB8BBC8B20E030E040E85FE369897A897A
:100A90008B899C890E94641488232CF481E090E067
:100AA0009E8B8D8B3FC020E03FEF4FE757E4698975
:100AB0007A898B899C890E94761518164CF520E05E
:100AC00030E040E251E46D857E858F8598890E94F3
:100AD0007A15DC01CB01BC01CD010E94D514DC01EB
:100AE000CB019E8B8D8B0FC089E190E0988F8F8B0F
:100AF0008F89988D0197F1F7988F8F8B8D899E89BB
:100B000001979E8B8D8B8D899E89892B69F714C0E7
:100B100069897A898B899C890E94D514DC01CB0173
:100B20009E8B8D8B8D899E899A8F898F898D9A8DC9
:100B30000197F1F79A8F898F0000C159DF4F0FB6E7
:100B4000F894DEBF0FBECDBFDF91CF911F910F9103
:100B500008950F931F93CF93DF93CDB7DEB7CF5692
:100B6000D1090FB6F894DEBF0FBECDBF9E0121594B
:100B70003F4FF90180838BE290E02BE230E0F901F6
:100B80002081422F4F709E0121593F4FF901208152
:100B9000207F242BFC0120838BE290E02BE230E0CD
:100BA000F90120812460FC0120838BE290E02BE29C
:100BB00030E0F90120812860FC01208380E090E092
:100BC000A0E8BFE389839A83AB83BC838E010D5A6F
:100BD0001F4F2BEA3AEA4AEA5EE369817A818B8108
:100BE0009C810E947A15DC01CB01F80180839183FE
:100BF000A283B3838E01095A1F4F20E030E040E802
:100C00005EE369817A818B819C810E947A15DC0187
:100C1000CB01F80180839183A283B383CE018D5AE7
:100C20009F4F20E030E040E85FE3FC01608171818C
:100C3000828193810E94641488233CF4CE01855AFA
:100C40009F4F21E0FC0120832CC1CE01895A9F4F88
:100C500020E03FEF4FE757E4FC0160817181828122
:100C600093810E94761518160CF0CDC020E030E07C
:100C70004AE754E469817A818B819C810E946814DF
:100C8000DC01CB019E01245A3F4FF90180839183FF
:100C9000A283B3838E01005A1F4FCE01845A9F4F07
:100CA00020E030E04AE753E4FC01608171818281F9
:100CB00093810E947A15DC01CB01F8018083918336
:100CC000A283B383CE01805A9F4F20E030E040E8FA
:100CD0005FE3FC0160817181828193810E946414D1
:100CE00088234CF4CE018C599F4F21E030E0FC0169
:100CF000318320836DC0CE01805A9F4F20E03FEFAB
:100D00004FE757E4FC0160817181828193810E94E9
:100D1000761518160CF04AC0CE01845A9F4F20E079
:100D200030E040E251E4FC01608171818281938175
:100D30000E947A15DC01CB018E010C591F4FBC01BA
:100D4000CD010E94D514DC01CB01F8019183808391
:100D500024C0CE018A599F4F29E130E0FC01318344
:100D60002083CE018A599F4FFC0180819181019798
:100D7000F1F79E012A593F4FF90191838083CE01FB
:100D80008C599F4F9E012C593F4FF9012081318191
:100D900021503109FC0131832083CE018C599F4FB2
:100DA000FC0180819181892BA1F67BC08E010C59B9
:100DB0001F4FCE01805A9F4FFC016081718182815B
:100DC00093810E94D514DC01CB01F80191838083CB
:100DD000CE0188599F4F9E012C593F4FF901208128
:100DE0003181FC0131832083CE0188599F4FFC0162
:100DF000808191810197F1F79E0128593F4FF901B8
:100E0000918380834EC0CE018D5A9F4F20E030E009
:100E10004FE753E4FC0160817181828193810E94DC
:100E2000761518166CF58E0106591F4FCE01895A9A
:100E30009F4FFC0160817181828193810E94D51452
:100E4000DC01CB01F80191838083CE0184599F4F4F
:100E50009E0126593F4FF90120813181FC013183E8
:100E60002083CE0184599F4FFC018081918101979D
:100E7000F1F79E0124593F4FF9019183808328C0E7
:100E80008E01055A1F4FCE018D5A9F4FFC01608184
:100E90007181828193810E94D514DC01CB01F8011C
:100EA0008083CE0182599F4F9E01255A3F4FF90101
:100EB0002081FC012083CE0182599F4FFC0180815B
:100EC000282F2A95F1F7CE0182599F4FFC012083EC
:100ED0008BE290E02BE230E0F9012081277FFC01DA
:100EE000208380E090E0A8E4B3E48D839E83AF8309
:100EF000B8872BEA3AEA4AEA5EE36D817E818F8108
:100F000098850E947A15DC01CB018FAB98AFA9AF11
:100F1000BAAF20E030E040E85EE36D817E818F81F2
:100F200098850E947A15DC01CB018BAF9CAFADAFE9
:100F3000BEAF20E030E040E85FE36FA978AD89AD57
:100F40009AAD0E94641488231CF481E08FAF18C10D
:100F500020E03FEF4FE757E46BAD7CAD8DAD9EAD2C
:100F60000E94761518160CF0CDC020E030E04AE75C
:100F700054E46D817E818F8198850E946814DC0124
:100F8000CB019E01205C3F4FF90180839183A283B6
:100F9000B3838E010C5B1F4FCE01805C9F4F20E01E
:100FA00030E04AE753E4FC016081718182819381E2
:100FB0000E947A15DC01CB01F80180839183A28322
:100FC000B383CE018C5B9F4F20E030E040E85FE3CD
:100FD000FC0160817181828193810E946414882365
:100FE0004CF4CE01885B9F4F21E030E0FC0131835F
:100FF00020836DC0CE018C5B9F4F20E03FEF4FE719
:1010000057E4FC0160817181828193810E94761591
:1010100018160CF04AC0CE01805C9F4F20E030E0F3
:1010200040E251E4FC0160817181828193810E94E0
:101030007A15DC01CB018E01085B1F4FBC01CD018D
:101040000E94D514DC01CB01F8019183808324C078
:10105000CE01865B9F4F29E130E0FC013183208384
:10106000CE01865B9F4FFC01808191810197F1F752
:101070009E01265B3F4FF90191838083CE01885BFF
:101080009F4F9E01285B3F4FF90120813181215004
:101090003109FC0131832083CE01885B9F4FFC0125
:1010A00080819181892BA1F66BC08E01085B1F4F57
:1010B000CE018C5B9F4FFC016081718182819381A5
:1010C0000E94D514DC01CB01F80191838083CE010D
:1010D000845B9F4F9E01285B3F4FF9012081318146
:1010E000FC0131832083CE01845B9F4FFC01808112
:1010F00091810197F1F79E01245B3F4FF9019183A4
:1011000080833EC020E030E04FE753E46FA978AD24
:1011100089AD9AAD0E94761518164CF58E01025BCA
:101120001F4F6BAD7CAD8DAD9EAD0E94D514DC0123
:10113000CB01F80191838083CE01805B9F4F9E019C
:10114000225B3F4FF90120813181FC0131832083F3
:10115000CE01805B9F4FFC01808191810197F1F767
:101160009E01205B3F4FF901918380831CC06FA9D2
:1011700078AD89AD9AAD0E94D514DC01CB018FAF5B
:10118000CE018E5A9F4F2FADFC012083CE018E5A87
:101190009F4FFC018081282F2A95F1F7CE018E5AAE
:1011A0009F4FFC0120838BE290E02BE230E0F901BD
:1011B0002081422F4F709E0121593F4FF90120811C
:1011C000222F30E022953295307F3227207F322740
:1011D000242BFC0120838BE290E02BE230E0F9012C
:1011E00020812860FC01208380E090E0A0E8BFE33C
:1011F00089879A87AB87BC872BEA3AEA4AEA5EE39B
:1012000069857A858B859C850E947A15DC01CB01E6
:101210008B8F9C8FAD8FBE8F20E030E040E85EE387
:1012200069857A858B859C850E947A15DC01CB01C6
:101230008F8F98A3A9A3BAA320E030E040E85FE332
:101240006B8D7C8D8D8D9E8D0E94641488231CF483
:1012500081E08BA3B2C020E03FEF4FE757E46F8DF2
:1012600078A189A19AA10E94761518160CF07BC06E
:1012700020E030E04AE754E469857A858B859C85D7
:101280000E946814DC01CB018CA39DA3AEA3BFA375
:1012900020E030E04AE753E46CA17DA18EA19FA13C
:1012A0000E947A15DC01CB0188A799A7AAA7BBA742
:1012B00020E030E040E85FE368A579A58AA59BA51A
:1012C0000E94641488232CF481E090E09DA78CA7F1
:1012D0003FC020E03FEF4FE757E468A579A58AA516
:1012E0009BA50E94761518164CF520E030E040E2F0
:1012F00051E46CA17DA18EA19FA10E947A15DC0111
:10130000CB01BC01CD010E94D514DC01CB019DA70E
:101310008CA70FC089E190E09FA78EA78EA59FA5FF
:101320000197F1F79FA78EA78CA59DA501979DA773
:101330008CA78CA59DA5892B69F73FC068A579A5C9
:101340008AA59BA50E94D514DC01CB019DA78CA783
:101350008CA59DA599AB88AB88A999A90197F1F7B0
:1013600099AB88AB2AC020E030E04FE753E46B8DA7
:101370007C8D8D8D9E8D0E9476151816ACF46F8D28
:1013800078A189A19AA10E94D514DC01CB019BAB65
:101390008AAB8AA99BA99DAB8CAB8CA99DA901970F
:1013A000F1F79DAB8CAB0FC06B8D7C8D8D8D9E8DC1
:1013B0000E94D514DC01CB018BA38BA18EAB8EA92F
:1013C0008A95F1F78EAB8BE290E02BE230E0F901E9
:1013D0002081277FFC01208380E090E0A0E0B0E442
:1013E0008D879E87AF87B88B20E030E04AE753E4D3
:1013F0006D857E858F8598890E947A15DC01CB01E9
:10140000898B9A8BAB8BBC8B20E030E040E85FE3AC
:1014100069897A898B899C890E94641488232CF4B9
:1014200081E090E09E8B8D8B3FC020E03FEF4FE747
:1014300057E469897A898B899C890E9476151816E8
:101440004CF520E030E040E251E46D857E858F85EB
:1014500098890E947A15DC01CB01BC01CD010E9464
:10146000D514DC01CB019E8B8D8B0FC089E190E000
:10147000988F8F8B8F89988D0197F1F7988F8F8B2D
:101480008D899E8901979E8B8D8B8D899E89892B55
:1014900069F714C069897A898B899C890E94D5145F
:1014A000DC01CB019E8B8D8B8D899E899A8F898FD4
:1014B000898D9A8D0197F1F79A8F898F0000C15914
:1014C000DF4F0FB6F894DEBF0FBECDBFDF91CF91D7
:1014D0001F910F910895CF93DF93CDB7DEB76C972F
:1014E0000FB6F894DEBF0FBECDBF8AE290E02FEFBB
:1014F000FC01208380E090E0A0EAB1E489839A8334
:10150000AB83BC8320E030E04AE753E469817A8111
:101510008B819C810E947A15DC01CB018B8B9C8B8B
:10152000AD8BBE8B20E030E040E85FE36B897C89C7
:101530008D899E890E94641488232CF481E090E0B8
:10154000988F8F8B3FC020E03FEF4FE757E46B89C8
:101550007C898D899E890E94761518164CF520E0AD
:1015600030E040E251E469817A818B819C810E9464
:101570007A15DC01CB01BC01CD010E94D514DC0140
:10158000CB01988F8F8B0FC089E190E09A8F898F64
:10159000898D9A8D0197F1F79A8F898F8F89988D10
:1015A0000197988F8F8B8F89988D892B69F714C03D
:1015B0006B897C898D899E890E94D514DC01CB01C1
:1015C000988F8F8B8F89988D9C8F8B8F8B8D9C8D17
:1015D0000197F1F79C8F8B8F82E00E94E70088E2F1
:1015E0000E94E7008CE00E94E70086E00E94E7008E
:1015F00081E00E94E70080E090E0A0E0B0E48D830D
:101600009E83AF83B88720E030E04AE753E46D81E2
:101610007E818F8198850E947A15DC01CB018987B4
:101620009A87AB87BC8720E030E040E85FE36985BC
:101630007A858B859C850E94641488232CF481E034
:1016400090E09E878D873FC020E03FEF4FE757E453
:1016500069857A858B859C850E94761518164CF5D0
:1016600020E030E040E251E46D817E818F819885F9
:101670000E947A15DC01CB01BC01CD010E94D5147A
:10168000DC01CB019E878D870FC089E190E0988BAC
:101690008F878F8598890197F1F7988B8F878D8534
:1016A0009E8501979E878D878D859E85892B69F7FD
:1016B00014C069857A858B859C850E94D514DC01D0
:1016C000CB019E878D878D859E859A8B898B898995
:1016D0009A890197F1F79A8B898B00006C960FB667
:1016E000F894DEBF0FBECDBFDF91CF910895CF93A9
:1016F000DF9300D000D0CDB7DEB79C838B831A82F6
:1017000019820EC089819A812B813C81820F931F9F
:10171000FC0180811EDA89819A8101969A838983EE
:1017200089819A812B813C81820F931FFC018081EA
:10173000882341F700000F900F900F900F90DF91DA
:10174000CF910895CF93DF93CDB7DEB72E970FB625
:10175000F894DEBF0FBECDBF81E00E94E70080E0BD
:1017600090E0A0E0B0E489839A83AB83BC8320E05F
:1017700030E04AE753E469817A818B819C810E9441
:101780007A15DC01CB018D839E83AF83B88720E07F
:1017900030E040E85FE36D817E818F8198850E9413
:1017A000641488232CF481E090E09A8789873FC0F5
:1017B00020E03FEF4FE757E46D817E818F81988570
:1017C0000E94761518164CF520E030E040E251E416
:1017D00069817A818B819C810E947A15DC01CB0121
:1017E000BC01CD010E94D514DC01CB019A87898709
:1017F0000FC089E190E09C878B878B859C85019742
:10180000F1F79C878B8789859A8501979A878987C5
:1018100089859A85892B69F714C06D817E818F81B6
:1018200098850E94D514DC01CB019A878987898528
:101830009A859E878D878D859E850197F1F79E8776
:101840008D8780E80E94E70000002E960FB6F8947E
:10185000DEBF0FBECDBFDF91CF9108950F931F93D1
:10186000CF93DF9300D000D0CDB7DEB769837A8302
:101870008B839C838091470390914803A0914903F7
:10188000B0914A039C01AD0169817A818B819C8171
:101890000E946414882309F475C020E030E0A90197
:1018A00069817A818B819C810E946414882351F420
:1018B00081E990E021E930E0F90120812870FC0104
:1018C000208309C081E990E021E930E0F90120811D
:1018D0002360FC01208328E539E344E75FE3698165
:1018E0007A818B819C81F0D7882344F488E990E049
:1018F0002FEF3FEFFC013183208333C020E034E23F
:1019000044EF56E469817A818B819C810E9476152F
:10191000181634F488E990E0FC011182108221C08D
:1019200008E910E020E030E040E053E469817A818A
:101930008B819C810E947A15DC01CB019C01AD0159
:1019400060E074E284EF9AE4C3D7DC01CB01BC0110
:10195000CD010E94D014DC01CB010197F8019183E5
:10196000808384E990E0FC011182108289819A8150
:10197000AB81BC818093470390934803A0934903B4
:10198000B0934A0300000F900F900F900F90DF91DB
:10199000CF911F910F910895CF93DF93CDB7DEB70D
:1019A00080E990E020E4FC01208381E990E02BE0D5
:1019B000FC01208360E070E0CB0150DF0000DF918C
:1019C000CF910895CF93DF93CDB7DEB781E890E054
:1019D0002BE0FC01208388E890E02FE030E0FC0160
:1019E000318320838FE690E022E0FC01208384E8AD
:1019F00090E0FC0111821082809100019091010120
:101A0000A0910201B091030180934303909344039A
:101A1000A0934503B09346038FE590E02FE530E0B7
:101A2000F90120812068FC0120830000DF91CF9123
:101A300008950F931F93CF93DF931F92CDB7DEB717
:101A40001982A6C08981282F30E0C901880F991F0B
:101A5000820F931F880F991F880F991F8C5A9C4FD4
:101A6000FC0120813181428153818981682F70E09E
:101A7000CB01880F991F860F971F880F991F880F1A
:101A8000991F805B9C4FFC0180819181A281B38171
:101A9000281739074A075B0708F449C08981082FCE
:101AA00010E08981282F30E0C901880F991F820F2B
:101AB000931F880F991F880F991F885A9C4FFC010C
:101AC000408151818981282F30E0C901880F991FF9
:101AD000820F931F880F991F880F991F825B9C4F5D
:101AE000FC0180819181FA0109959C01C801880F50
:101AF000991F800F911F880F991F880F991F825B74
:101B00009C4FFC01318320838981282F30E0C9015B
:101B1000880F991F820F931F880F991F880F991F95
:101B20008C5A9C4FFC01108211821282138289818F
:101B3000682F70E08981282F30E0C901880F991F34
:101B4000820F931F880F991F880F991F8C5A9C4FE3
:101B5000FC0180819181A281B38122E030E040E0EC
:101B600050E0280F391F4A1F5B1FCB01880F991FB8
:101B7000860F971F880F991F880F991F8C5A9C4FAB
:101B8000FC01208331834283538389818F5F898362
:101B900085E09981981708F455CF00000F90DF91E8
:101BA000CF911F910F9108951F920F9200905F00A7
:101BB0000F92112400905B000F922F933F934F934D
:101BC0005F936F937F938F939F93AF93BF93EF93A5
:101BD000FF93CF93DF93CDB7DEB78091430390910E
:101BE0004403A0914503B09146030197A109B109AF
:101BF0008093430390934403A0934503B09346031B
:101C00008091430390914403A0914503B091460312
:101C1000892B8A2B8B2B89F40CDF8091000190910A
:101C20000101A0910201B0910301809343039093BD
:101C30004403A0934503B09346030000DF91CF9186
:101C4000FF91EF91BF91AF919F918F917F916F9194
:101C50005F914F913F912F910F9000925B000F90F9
:101C600000925F000F901F901895CF93DF9300D0E4
:101C700000D0CDB7DEB769837A838B839C8389815B
:101C80009A81AB81BC818093000190930101A09364
:101C90000201B09303018091000190910101A09194
:101CA0000201B09103018093430390934403A093F6
:101CB0004503B093460300000F900F900F900F90D4
:101CC000DF91CF910895CF93DF9300D0CDB7DEB7EA
:101CD00089836A838981882F90E02A81222F30E0CE
:101CE00002C0959587952A95E2F78170992721E0A2
:101CF000892B09F420E0822F0F900F90DF91CF9174
:101D00000895CF93DF9300D0CDB7DEB79A83898350
:101D100089819A81009719F0019771F010C080E0D5
:101D20000E94AB00882319F41A82198208C081E04E
:101D300090E09A83898303C01A8219820000898106
:101D40009A81009709F470C0019709F070C080E093
:101D50000E94C30080938A0380914103813061F027
:101D600080918A03853309F061C081E0809341034B
:101D700081E0809340035AC080914103813069F42F
:101D800080918A03853349F41092410310924003F5
:101D900010923E0310923F034AC080918A0382331F
:101DA00079F480913E03883730F480913E038F5F51
:101DB00080933E0302C010923E0310928A0337C004
:101DC00080918A03813379F480913E03882331F036
:101DD00080913E03815080933E0302C010923E03E7
:101DE00010928A0324C080918A03843391F48091F5
:101DF0003F03863058F480913F038F5F80933F0309
:101E000080913E038F5F80933E0311C010923F0389
:101E10000EC080918A03863321F481E080934203CF
:101E200006C010923E0303C0000001C0000089817B
:101E30009A810F900F90DF91CF910895CF93DF9308
:101E4000CDB7DEB7C357D1400FB6F894DEBF0FBE93
:101E5000CDBF9E012E583E4FF9019183808388E0CB
:101E6000E5E0F1E0DE01129601900D928A95E1F72E
:101E700088E7EDE0F1E0DE011A9601900D928A9577
:101E8000E1F7CE018E579F4F28E7E5E8F1E0DC014E
:101E900001900D922A95E1F7CE0186509F4F28E7D9
:101EA000FC01322F11923A95E9F7CE0186509F4FEF
:101EB00020E4FC012283CE0186509F4F20ECFC01E0
:101EC0002383CE0186509F4F20E4FC012483CE0162
:101ED00086509F4F20E8FC01208BCE0186509F4FFB
:101EE00020ECFC01218BCE0186509F4F20E4FC01A9
:101EF000228BCE0186509F4F20E4FC0124A3CE010B
:101F000086509F4F20ECFC0125A3CE0186509F4FA9
:101F100020EEFC0126A3CE0186509F4F20E4FC0159
:101F200027A3CE0186509F4F20E4FC0120AFCE01B5
:101F300086509F4F20ECFC0121AFCE0186509F4F71
:101F400020ECFC0122AFCE0186509F4F20E8FC011F
:101F500023AFCE0186509F4F8F5A9F4F20E4FC0144
:101F60002083CE0186509F4F8E5A9F4F20ECFC015C
:101F70002083CE0186509F4F8D5A9F4F20E4FC0155
:101F80002083CE0186509F4F82599F4F20E4FC0151
:101F90002083CE0186509F4F81599F4F20EEFC0138
:101FA0002083CE0186509F4F80599F4F20EEFC0129
:101FB0002083CE0186509F4F8F589F4F20E4FC0115
:101FC0002083CE018E589E4FFC018081918181300B
:101FD0009105C9F08230910551F1892B89F58091E5
:101FE0004103813049F4CE018E589E4F21E030E00C
:101FF000FC01318320832BC0CE018E589E4FFC0103
:102000001182108224C080914103813049F4CE01B5
:102010008E589E4F22E030E0FC013183208317C0B0
:10202000CE018E589E4FFC011182108210C0CE014D
:102030008E589E4F21E030E0FC013183208307C0A1
:10204000CE018E589E4FFC01118210820000CE01FD
:102050008E589E4FFC01808191818130910521F045
:10206000029709F460C023C180913C0390913D0325
:1020700008970CF053C080913C0390913D039E0162
:102080002E5F3F4F820F931FFC01808180938C0352
:1020900080913E03282F30E080913C0390913D03D6
:1020A000820F931F9E012E573F4F820F931FFC01FB
:1020B000408180913E03282F30E080913C03909135
:1020C0003D03820F931F9E01265F3F4F820F931F98
:1020D000FC018081482B80913E03282F30E08091C5
:1020E0003C0390913D03820F931F9E0126503F4F6A
:1020F000820F931FFC018081842B80934B0380917E
:102100004B03809580938B0380913C0390913D031A
:10211000019690933D0380933C03C9C010923D0308
:1021200010923C03C4C010924C0380913F03813055
:1021300061F480913C0390913D03019731F482E07A
:10214000898384E080934C0360C080913F03823098
:1021500061F480913C0390913D03019731F483E059
:10216000898388E080934C0350C080913F03833083
:1021700061F480913C0390913D03019731F484E038
:10218000898380E180934C0340C080913F03843079
:1021900061F480913C0390913D03019731F485E017
:1021A000898380E280934C0330C080913F03853067
:1021B00061F480913C0390913D03019731F486E0F6
:1021C000898380E480934C0320C080913F03863054
:1021D00061F480913C0390913D03019731F487E0D5
:1021E000898380E880934C0310C080913C039091D8
:1021F0003D03019731F481E0898382E080934C03B1
:1022000004C081E0898310924C0380914B03698163
:102210005ADD882309F442C080913C0390913D032C
:102220000197E1F580913E03815080933E038091B8
:102230003E03282F30E080913C0390913D03820FB4
:10224000931F9E012E573F4F820F931FFC01408129
:1022500080913E03282F30E080913C0390913D0314
:10226000820F931F9E01265F3F4F820F931FFC0139
:102270008081482B80913E03282F30E080913C03E1
:1022800090913D03820F931F9E0126503F4F820F76
:10229000931FFC018081842B80934B0390914C030E
:1022A00080914B03892B809580938B030000CE0196
:1022B0008E589E4FFC0180819181CD58DE4F0FB624
:1022C000F894DEBF0FBECDBFDF91CF910895CF93BD
:1022D000DF9300D0CDB7DEB79A83898389819A8155
:1022E000892B89F480914103813061F488E290E088
:1022F00020918C03FC01208382E290E020918B03EB
:10230000FC012083000089819A810F900F90DF915A
:10231000CF910895CF93DF9300D0CDB7DEB79A83E6
:10232000898389819A8181309105C1F0823091053C
:102330001CF4892B39F03AC082309105D9F003970B
:1023400071F134C080914103813029F481E090E043
:102350009A8389832EC01A8219822BC080914103EF
:10236000882319F41A82198224C082E090E09A83AB
:1023700089831FC080914103882319F41A8219822E
:1023800018C080914203813029F483E090E09A8361
:1023900089830FC082E090E09A8389830AC082E03B
:1023A00090E09A8389831092420303C01A821982B3
:1023B000000089819A818130910571F08230910508
:1023C0001CF4892B39F01BC082309105B9F00397BA
:1023D00039F015C0B7D913C08DEF91E088D90FC07F
:1023E000B1D98EE092E083D9809104010E94A905C1
:1023F000809104018F5F8093040101C000008981F6
:102400009A810F900F90DF91CF910895CF93DF9332
:1024100000D0CDB7DEB79A83898389819A810097EE
:1024200019F0019721F00FC01A8219820FC0809114
:102430004103813029F481E090E09A83898306C0CA
:102440001A82198203C01A821982000089819A8136
:10245000009719F0019719F021C09EDA1FC08091F2
:102460004D038934C0F480914D03882F90E0880F8C
:10247000991F880F991F885E9D4FFC018081918173
:10248000A281B381BC01CD01E9D980914D038F5F59
:1024900080934D0302C010924D03000089819A8100
:1024A0000F900F90DF91CF910895CF93DF931F92FC
:1024B000CDB7DEB719828981282F30E0C901880F96
:1024C000991F820F931F880F991F880F991F825B96
:1024D0009C4FFC01118210828981682F70E022E0FC
:1024E00030E040E050E0CB01880F991F860F971F26
:1024F000880F991F880F991F805B9C4FFC012083D8
:102500003183428353838981682F70E08981282F2A
:1025100030E0C901880F991F820F931F880F991F00
:10252000880F991F805B9C4FFC0120813181428183
:102530005381CB01880F991F860F971F880F991F12
:10254000880F991F8C5A9C4FFC0120833183428352
:1025500053838981282F30E0C901880F991F820F8A
:10256000931F880F991F880F991F885A9C4F21E845
:102570003EE0FC013183208389818F5F89838981DB
:10258000282F30E0C901880F991F820F931F880FF1
:10259000991F880F991F825B9C4FFC01118210824A
:1025A0008981682F70E022E030E040E050E0CB010C
:1025B000880F991F860F971F880F991F880F991FE3
:1025C000805B9C4FFC01208331834283538389814C
:1025D000682F70E08981282F30E0C901880F991F8A
:1025E000820F931F880F991F880F991F805B9C4F44
:1025F000FC012081318142815381CB01880F991FD9
:10260000860F971F880F991F880F991F8C5A9C4F10
:10261000FC0120833183428353838981282F30E05A
:10262000C901880F991F820F931F880F991F880F68
:10263000991F885A9C4F2EE13FE0FC013183208393
:1026400089818F5F89838981282F30E0C901880FB4
:10265000991F820F931F880F991F880F991F825B04
:102660009C4FFC01118210828981682F70E022E06A
:1026700030E040E050E0CB01880F991F860F971F94
:10268000880F991F880F991F805B9C4FFC01208346
:102690003183428353838981682F70E08981282F99
:1026A00030E0C901880F991F820F931F880F991F6F
:1026B000880F991F805B9C4FFC01208131814281F2
:1026C0005381CB01880F991F860F971F880F991F81
:1026D000880F991F8C5A9C4FFC01208331834283C1
:1026E00053838981282F30E0C901880F991F820FF9
:1026F000931F880F991F880F991F885A9C4F27E6B0
:1027000031E1FC013183208389818F5F8983898155
:10271000282F30E0C901880F991F820F931F880F5F
:10272000991F880F991F825B9C4FFC0111821082B8
:102730008981682F70E024E630E040E050E0CB0172
:10274000880F991F860F971F880F991F880F991F51
:10275000805B9C4FFC0120833183428353838981BA
:10276000682F70E08981282F30E0C901880F991FF8
:10277000820F931F880F991F880F991F805B9C4FB2
:10278000FC012081318142815381CB01880F991F47
:10279000860F971F880F991F880F991F8C5A9C4F7F
:1027A000FC0120833183428353838981282F30E0C9
:1027B000C901880F991F820F931F880F991F880FD7
:1027C000991F885A9C4F2AE831E1FC01318320830C
:1027D00089818F5F89838981282F30E0C901880F23
:1027E000991F820F931F880F991F880F991F825B73
:1027F0009C4FFC01118210828981682F70E024E6D1
:1028000030E040E050E0CB01880F991F860F971F02
:10281000880F991F880F991F805B9C4FFC012083B4
:102820003183428353838981682F70E08981282F07
:1028300030E0C901880F991F820F931F880F991FDD
:10284000880F991F805B9C4FFC0120813181428160
:102850005381CB01880F991F860F971F880F991FEF
:10286000880F991F8C5A9C4FFC012083318342832F
:1028700053838981282F30E0C901880F991F820F67
:10288000931F880F991F880F991F885A9C4F26E025
:1028900032E1FC013183208381E290E02FEFFC01E3
:1028A000208387E290E02FEFFC01208382E090E01C
:1028B000A0E0B0E0BC01CD01D8D984D880E00E946E
:1028C00066000E946B0AFFCF9CD008F481E0089557
:1028D0000CD0D2C0CAD040F0C1D030F021F45F3F5C
:1028E00019F0B3C05111FCC0B6C0D7D098F39923EA
:1028F000C9F35523B1F3951B550BBB27AA276217C4
:102900007307840738F09F5F5F4F220F331F441F08
:10291000AA1FA9F333D00E2E3AF0E0E830D0915040
:102920005040E695001CCAF729D0FE2F27D0660F2D
:10293000771F881FBB1F261737074807AB07B0E86C
:1029400009F0BB0B802DBF01FF2793585F4F2AF082
:102950009E3F510568F079C0C3C05F3FECF3983EDD
:10296000DCF3869577956795B795F7959F5FC9F7DF
:10297000880F911D9695879597F90895E1E0660F68
:10298000771F881FBB1F621773078407BA0720F0E1
:10299000621B730B840BBA0BEE1F88F7E09508954A
:1029A00004D06894B1119CC008957FD088F09F57DF
:1029B00090F0B92F9927B751A0F0D1F0660F771F8B
:1029C000881F991F1AF0BA95C9F712C0B13081F06B
:1029D00086D0B1E0089583C0672F782F8827B85F2D
:1029E00039F0B93FCCF3869577956795B395D9F7CC
:1029F0003EF490958095709561957F4F8F4F9F4FD6
:102A00000895990F0008550FAA0BE0E8FEEF16167F
:102A10001706E807F907C0F012161306E407F507D2
:102A200098F0621B730B840B950B39F40A2661F046
:102A3000232B242B252B21F408950A2609F4A140E9
:102A4000A6958FEF811D811D089597F99F6780E8F6
:102A500070E060E008959FEF80EC089500240A94F0
:102A60001616170618060906089500240A94121669
:102A70001306140605060895092E0394000C11F49C
:102A8000882352F0BB0F40F4BF2B11F460FF04C049
:102A90006F5F7F4F8F4F9F4F089557FD9058440FA2
:102AA000551F59F05F3F71F04795880F97FB991FAD
:102AB00061F09F3F79F0879508951216130614066A
:102AC000551FF2CF4695F1DF08C0161617061806F7
:102AD000991FF1CF86957105610508940895E894D2
:102AE000BB2766277727CB0197F908958ADF08F47B
:102AF0008FEF08950BD0C0CFB1DF28F0B6DF18F00C
:102B0000952309F0A2CFA7CF1124EACFC6DFA0F307
:102B1000959FD1F3950F50E0551F629FF001729F72
:102B2000BB27F00DB11D639FAA27F00DB11DAA1F91
:102B3000649F6627B00DA11D661F829F2227B00DDE
:102B4000A11D621F739FB00DA11D621F839FA00D69
:102B5000611D221F749F3327A00D611D231F849FB9
:102B6000600D211D822F762F6A2F11249F57504010
:102B70008AF0E1F088234AF0EE0FFF1FBB1F661FAB
:102B8000771F881F91505040A9F79E3F510570F064
:102B90005CCFA6CF5F3FECF3983EDCF3869577954C
:102BA0006795B795F795E7959F5FC1F7FE2B880F5F
:0E2BB000911D9695879597F90895F894FFCF9B
:102BBE000100000030010204081020408000004097
:102BCE00C040000008000828080000000080C04037
:102BDE0000000000000000000000000000000800DF
:102BEE000040C0E04000040410101010000000006F
:102BFE00001014000048C8C080080028000800001B
:102C0E00202000002820000002060E000E0642C002
:102C1E004002060E0E000E0602000000000008081C
:102C2E00000000000002060E1E1E0040E0E2400002
:102C3E000E3E183E0E010141C14101010901092953
:102C4E00090101010187C74101010F0F01010F0F9A
:102C5E0001010F0F010109010141C1E0400105050C
:102C6E001111111101010000001115010149C9C115
:102C7E0081090129010901012121010129210101F6
:102C8E0003070F010F0743C14103070F0F000F0783
:102C9E000301070701010909010101070703070FD6
:102CAE001F1F0141E1E34101010101010157454CA3
:102CBE00434F4D4520544F204D4152494F005363D1
:102CCE006F726520697320000000A5430000A543C4
:102CDE000000A543000083430000A5430000C44349
:102CEE00000044430000834300004443000024439B
:102CFE0000005C43000076430000694300005C4323
:102D0E00000044430000A5430000C4430000DC4320
:102D1E000080AE430000C4430000A543000083437F
:102D2E000000C54300007743000083430000444386
:102D3E000000244300005C4300007643000069431A
:102D4E0000005C43000044430000A5430000C44360
:102D5E000000DC430080AE430000C4430000A543E6
:102D6E00000083430000C543000077430000C443C6
:102D7E000000B9430080AE4300809B430000A54392
:102D8E0000004F4300005C430000834300005C439F
:102D9E0000008343000093430000C4430000B94386
:102DAE000080AE4300809B430000A54300C0024458
:102DBE0000C0024400C002440000C4430000B943F6
:102DCE000080AE4300809B430000A54300004F43AC
:102DDE0000005C430000834300005C43000083431B
:0C2DEE000000934300809B4300009443CE
:00000001FF
