S01200006D61696E5F6C6F6769632E7372656300
S113000045C0000060C000005EC000005CC000008D
S11300105AC0000058C0000056C0000054C0000080
S113002052C0000050C000004EC000004CC0000090
S11300304AC00000BCC1000046C0000044C000002B
S113004042C0000040C000003EC000003CC00000B0
S11300503AC0000038C0000036C0000034C00000C0
S113006032C0000030C000002EC000002CC00000D0
S11300702AC0000028C0000026C0000024C00000E0
S113008022C0000020C000001EC0000011241FBEBA
S1130090CFEFD0E4DEBFCDBF11E0A0E0B1E0E8E1F6
S11300A0FDE000E00BBF02C007900D92AC3FB1072A
S11300B0D9F722E0ACEFB1E001C01D92AD32B20736
S11300C0E1F7E4D427C69CCFCF93DF931F92CDB73B
S11300D0DEB7898389818130E1F081EC90E021EC05
S11300E030E0F90120812861FC01208382EC90E05A
S11300F022EC30E0F90120812660FC01208384ECAD
S113010090E023E3FC01208385EC90E0FC01108265
S11301101BC089EC90E029EC30E0F90120812861D2
S1130120FC0120838AEC90E02AEC30E0F901208184
S11301302660FC0120838CEC90E023E3FC01208307
S11301408DEC90E0FC01108200000F90DF91CF91C4
S11301500895CF93DF931F92CDB7DEB7898389814A
S1130160813031F080EC90E0FC018081807805C022
S113017088EC90E0FC01808180780F90DF91CF9132
S11301800895CF93DF931F92CDB7DEB7898389811A
S1130190813061F0000080EC90E0FC0180818823D4
S11301A0D4F786EC90E0FC0180810BC0000088EC61
S11301B090E0FC0180818823D4F78EEC90E0FC0170
S11301C080810F90DF91CF910895CF93DF93CDB7C6
S11301D0DEB781E890E02BE0FC01208388E890E022
S11301E02FE030E0FC01318320838FE690E022E0B1
S11301F0FC01208384E890E0FC011182108280914C
S1130200000190910101A0910201B091030180933A
S1130210000290930102A0930202B09303028FE5BF
S113022090E02FE530E0F90120812068FC01208373
S11302300000DF91CF9108950F931F93CF93DF9325
S11302401F92CDB7DEB71982A6C08981282F30E06E
S1130250C901880F991F820F931F880F991F880F58
S1130260991F845F9D4FFC0120813181428153811C
S11302708981682F70E0CB01880F991F860F971F23
S1130280880F991F880F991F885F9D4FFC018081FB
S11302909181A281B381281739074A075B0708F4C3
S11302A049C08981082F10E08981282F30E0C901D5
S11302B0880F991F820F931F880F991F880F991F0A
S11302C0805F9D4FFC01408151818981282F30E05E
S11302D0C901880F991F820F931F880F991F880FD8
S11302E0991F8A5F9D4FFC0180819181FA010995D4
S11302F09C01C801880F991F800F911F880F991FB7
S1130300880F991F8A5F9D4FFC0131832083898167
S1130310282F30E0C901880F991F820F931F880F7F
S1130320991F880F991F845F9D4FFC0110821182D1
S1130330128213828981682F70E08981282F30E02E
S1130340C901880F991F820F931F880F991F880F67
S1130350991F845F9D4FFC0180819181A281B381AB
S113036022E030E040E050E0280F391F4A1F5B1FB5
S1130370CB01880F991F860F971F880F991F880F2D
S1130380991F845F9D4FFC012083318342835383F3
S113039089818F5F898383E09981981708F455CF09
S11303A000000F90DF91CF911F910F9108951F923C
S11303B00F9200905F000F92112400905B000F9247
S11303C02F933F934F935F936F937F938F939F9359
S11303D0AF93BF93EF93FF93CF93DF93CDB7DEB784
S11303E08091000290910102A0910202B091030257
S11303F00197A109B1098093000290930102A0938F
S11304000202B09303028091000290910102A09134
S11304100202B0910302892B8A2B8B2B89F40CDF07
S11304208091000190910101A0910201B09103011A
S11304308093000290930102A0930202B0930302FE
S11304400000DF91CF91FF91EF91BF91AF919F9108
S11304508F917F916F915F914F913F912F910F9069
S113046000925B000F9000925F000F901F90189510
S1130470CF93DF9300D000D0CDB7DEB769837A8302
S11304808B839C8389819A81AB81BC818093000199
S113049090930101A0930201B093030180910001A4
S11304A090910101A0910201B09103018093000297
S11304B090930102A0930202B093030200000F90F4
S11304C00F900F900F90DF91CF910895CF93DF930A
S11304D000D0CDB7DEB789836A838981882F90E005
S11304E02A81222F30E002C0959587952A95E2F75C
S11304F08170992721E0892B09F420E0822F0F9045
S11305000F90DF91CF910895CF93DF9300D0CDB7B3
S1130510DEB79A83898389819A81009719F00197BC
S113052069F00FC080E015DE882319F41A8219825D
S113053008C081E090E09A83898303C01A821982FB
S1130540000089819A81009709F446C0019709F057
S113055044C080E016DE80932A0280912A0282330E
S113056079F48091FE01883730F48091FE018F5F29
S11305708093FE0102C01092FE0110922A022DC047
S113058080912A02813379F48091FE01882331F02D
S11305908091FE0181508093FE0102C01092FE0101
S11305A010922A021AC080912A02843391F4809115
S11305B0FF01863058F48091FF018F5F8093FF0123
S11305C08091FE018F5F8093FE0107C01092FF01AE
S11305D004C01092FE0101C0000089819A810F902D
S11305E00F90DF91CF910895CF93DF93CDB7DEB70E
S11305F0C357D1400FB6F894DEBF0FBECDBF9E01E6
S11306002E583E4FF9019183808388E0E4E0F1E0C5
S1130610DE01129601900D928A95E1F788E7ECE0ED
S1130620F1E0DE011A9601900D928A95E1F7CE0170
S11306308E579F4F28E7E4E8F1E0DC0101900D922A
S11306402A95E1F7CE0186509F4F28E7FC01322F0F
S113065011923A95E9F7CE0186509F4F20E4FC01B0
S11306602283CE0186509F4F20ECFC012383CE01D0
S113067086509F4F20E4FC012483CE0186509F4F77
S113068020E8FC01208BCE0186509F4F20ECFC011A
S1130690218BCE0186509F4F20E4FC01228BCE019A
S11306A086509F4F20E4FC0124A3CE0186509F4F27
S11306B020ECFC0125A3CE0186509F4F20EEFC01C7
S11306C026A3CE0186509F4F20E4FC0127A3CE0130
S11306D086509F4F20E4FC0120AFCE0186509F4FEF
S11306E020ECFC0121AFCE0186509F4F20ECFC0191
S11306F022AFCE0186509F4F20E8FC0123AFCE01EC
S113070086509F4F8F5A9F4F20E4FC012083CE01D7
S113071086509F4F8E5A9F4F20ECFC012083CE01C0
S113072086509F4F8D5A9F4F20E4FC012083CE01B9
S113073086509F4F82599F4F20E4FC012083CE01B5
S113074086509F4F81599F4F20EEFC012083CE019C
S113075086509F4F80599F4F20EEFC012083CE018D
S113076086509F4F8F589F4F20E4FC012083CE0179
S11307708E589E4FFC01808191818130910571F0EA
S113078082309105A1F0892BD9F4CE018E589E4F69
S113079021E030E0FC013183208319C0CE018E5862
S11307A09E4F22E030E0FC013183208310C0CE0153
S11307B08E589E4F21E030E0FC013183208307C036
S11307C0CE018E589E4FFC01118210820000CE0192
S11307D08E589E4FFC01808191818130910521F0DA
S11307E0029709F460C023C18091FC019091FD013E
S11307F008970CF053C08091FC019091FD019E017B
S11308002E5F3F4F820F931FFC01808180932C0247
S11308108091FE01282F30E08091FC019091FD0130
S1130820820F931F9E012E573F4F820F931FFC018F
S113083040818091FE01282F30E08091FC0190914D
S1130840FD01820F931F9E01265F3F4F820F931F6E
S1130850FC018081482B8091FE01282F30E080919B
S1130860FC019091FD01820F931F9E0126503F4F82
S1130870820F931FFC018081842B8093040280915A
S11308800402809580932B028091FC019091FD01DC
S113089001969093FD018093FC01C9C01092FD0163
S11308A01092FC01C4C0109205028091FF018130B6
S11308B061F48091FC019091FD01019731F482E093
S11308C0898384E08093050260C08091FF018230B7
S11308D061F48091FC019091FD01019731F483E072
S11308E0898388E08093050250C08091FF018330A2
S11308F061F48091FC019091FD01019731F484E051
S1130900898380E18093050240C08091FF01843097
S113091061F48091FC019091FD01019731F485E02F
S1130920898380E28093050230C08091FF01853085
S113093061F48091FC019091FD01019731F486E00E
S1130940898380E48093050220C08091FF01863072
S113095061F48091FC019091FD01019731F487E0ED
S1130960898380E88093050210C08091FC019091F6
S1130970FD01019731F481E0898382E080930502CF
S113098004C081E089831092050280910402698188
S11309909DDD882309F442C08091FC019091FD0102
S11309A00197E1F58091FE0181508093FE018091D1
S11309B0FE01282F30E08091FC019091FD01820F0F
S11309C0931F9E012E573F4F820F931FFC014081BE
S11309D08091FE01282F30E08091FC019091FD016F
S11309E0820F931F9E01265F3F4F820F931FFC01CE
S11309F08081482B8091FE01282F30E08091FC01FA
S1130A009091FD01820F931F9E0126503F4F820F4C
S1130A10931FFC018081842B809304029091050232
S1130A2080910402892B809580932B020000CE01D3
S1130A308E589E4FFC0180819181CD58DE4F0FB6B8
S1130A40F894DEBF0FBECDBFDF91CF910895CF9351
S1130A50DF9300D0CDB7DEB79A83898389819A81E9
S1130A60892B69F488E290E020912C02FC01208318
S1130A7082E290E020912B02FC0120830000898116
S1130A809A810F900F90DF91CF910895CF93DF93C8
S1130A901F92CDB7DEB719828981282F30E0C901B2
S1130AA0880F991F820F931F880F991F880F991F12
S1130AB08A5F9D4FFC01118210828981682F70E04A
S1130AC022E030E040E050E0CB01880F991F860F10
S1130AD0971F880F991F880F991F885F9D4FFC01EE
S1130AE020833183428353838981682F70E0898115
S1130AF0282F30E0C901880F991F820F931F880F98
S1130B00991F880F991F885F9D4FFC0120813181B7
S1130B1042815381CB01880F991F860F971F880F3D
S1130B20991F880F991F845F9D4FFC012083318397
S1130B30428353838981282F30E0C901880F991F8C
S1130B40820F931F880F991F880F991F805F9D4FF5
S1130B5024E832E0FC013183208389818F5F89831B
S1130B608981282F30E0C901880F991F820F931FB4
S1130B70880F991F880F991F8A5F9D4FFC0111826E
S1130B8010828981682F70E022E030E040E050E07C
S1130B90CB01880F991F860F971F880F991F880F05
S1130BA0991F885F9D4FFC012083318342835383C7
S1130BB08981682F70E08981282F30E0C901880F6E
S1130BC0991F820F931F880F991F880F991F885FA1
S1130BD09D4FFC012081318142815381CB01880FDB
S1130BE0991F860F971F880F991F880F991F845F7D
S1130BF09D4FFC0120833183428353838981282FB5
S1130C0030E0C901880F991F820F931F880F991F25
S1130C10880F991F805F9D4F24EF32E0FC013183E0
S1130C20208389818F5F89838981282F30E0C901DE
S1130C30880F991F820F931F880F991F880F991F80
S1130C408A5F9D4FFC01118210828981682F70E0B8
S1130C5022E030E040E050E0CB01880F991F860F7E
S1130C60971F880F991F880F991F885F9D4FFC015C
S1130C7020833183428353838981682F70E0898183
S1130C80282F30E0C901880F991F820F931F880F06
S1130C90991F880F991F885F9D4FFC012081318126
S1130CA042815381CB01880F991F860F971F880FAC
S1130CB0991F880F991F845F9D4FFC012083318306
S1130CC0428353838981282F30E0C901880F991FFB
S1130CD0820F931F880F991F880F991F805F9D4F64
S1130CE027E235E0FC013183208381E290E02FEF9D
S1130CF0FC01208387E290E02FEFFC01208382E057
S1130D0090E0A0E0B0E0BC01CD01B2DB5EDA80E0AF
S10B0D10DBD9FFCFF894FFCFFB
S1130D18010000000102040810204080000040C0C7
S1130D2840000008000828080000000080C04000B7
S1130D38000000000000000000000000000800009F
S1130D4840C0E0400004041010101000000000002F
S1130D581014000048C8C0800800280008000020BB
S1130D682000002820000002060E000E0642C040A3
S1130D7802060E0E000E060200000000000808001D
S1130D880000000002060E1E1E0040E0E240000EB5
S1130D983E183E0E010141C1410101090109290919
S1130DA80101010187C74101010F0F01010F0F0163
S1130DB8010F0F010109010141C1E04001050511BD
S1130DC811111101010000001115010149C9C18166
S1130DD80901290109010121210101292101010335
S1130DE8070F010F0743C14103070F0F000F070344
S1130DF801070701010909010101070703070F1F7B
S10F0E081F0141E1E3410101010101016E
S9030000FC
