:1000000045C0000062C0000060C000005EC000008B
:100010005CC000005AC0000058C0000056C000007C
:1000200054C0000052C0000050C000004EC000008C
:100030004CC000000C94D60D48C0000046C0000023
:1000400044C0000042C0000040C000003EC00000AC
:100050003CC000003AC0000038C0000036C00000BC
:1000600034C0000032C0000030C000002EC00000CC
:100070002CC000002AC0000028C0000026C00000DC
:1000800024C0000022C0000020C0000011241FBEB8
:10009000CFEFD0E4DEBFCDBF16E0A0E0B1E0E4ECEE
:1000A000FDE200E00BBF02C007900D92A83FB10730
:1000B000D9F727E0A8EFB6E001C01D92A135B2073D
:1000C000E1F70E940F130C94E0169ACFCF93DF93C1
:1000D0001F92CDB7DEB7898389818130E1F081EC51
:1000E00090E021EC30E0F90120812861FC012083BF
:1000F00082EC90E022EC30E0F90120812660FC01E6
:10010000208384EC90E023E3FC01208385EC90E0E5
:10011000FC0110821BC089EC90E029EC30E0F90171
:1001200020812861FC0120838AEC90E02AEC30E0F9
:10013000F90120812660FC0120838CEC90E023E310
:10014000FC0120838DEC90E0FC01108200000F90F8
:10015000DF91CF910895CF93DF931F92CDB7DEB794
:1001600089838981813031F080EC90E0FC018081CD
:10017000807805C088EC90E0FC01808180780F9049
:10018000DF91CF910895CF93DF931F92CDB7DEB764
:1001900089838981813061F0000080EC90E0FC016E
:1001A00080818823D4F786EC90E0FC0180810BC02D
:1001B000000088EC90E0FC0180818823D4F78EEC6D
:1001C00090E0FC0180810F90DF91CF9108950F9313
:1001D0001F93CF93DF93CDB7DEB7CF56D1090FB6BC
:1001E000F894DEBF0FBECDBF9E0121593F4FF901EC
:1001F00080838BE290E02BE230E0F9012081422FF6
:100200004F709E0121593F4FF9012081207F242BFF
:10021000FC0120838BE290E02BE230E0F9012081A9
:100220002B7FFC0120838BE290E02BE230E0F90190
:1002300020812860FC01208380E090E0A0E8BFE3FB
:1002400089839A83AB83BC838E010D5A1F4F2BEA9F
:100250003AEA4AEA5EE369817A818B819C810E9455
:100260007D16DC01CB01F80180839183A283B383E7
:100270008E01095A1F4F20E030E040E85EE36981BB
:100280007A818B819C810E947D16DC01CB01F80173
:1002900080839183A283B383CE018D5A9F4F20E048
:1002A00030E040E85FE3FC016081718182819381ED
:1002B0000E942A1588233CF4CE01855A9F4F21E0E5
:1002C000FC0120832CC1CE01895A9F4F20E03FEFD3
:1002D0004FE757E4FC0160817181828193810E9424
:1002E000791618160CF0CDC020E030E04AE754E44F
:1002F00069817A818B819C810E942E15DC01CB0162
:100300009E01245A3F4FF90180839183A283B383D6
:100310008E01005A1F4FCE01845A9F4F20E030E0DB
:100320004AE753E4FC0160817181828193810E94DC
:100330007D16DC01CB01F80180839183A283B38316
:10034000CE01805A9F4F20E030E040E85FE3FC019F
:1003500060817181828193810E942A1588234CF4E7
:10036000CE018C599F4F21E030E0FC013183208386
:100370006DC0CE01805A9F4F20E03FEF4FE757E41A
:10038000FC0160817181828193810E947916181627
:100390000CF04AC0CE01845A9F4F20E030E040E28A
:1003A00051E4FC0160817181828193810E947D16FC
:1003B000DC01CB018E010C591F4FBC01CD010E9405
:1003C0009B15DC01CB01F8019183808324C0CE0111
:1003D0008A599F4F29E130E0FC0131832083CE010F
:1003E0008A599F4FFC01808191810197F1F79E010D
:1003F0002A593F4FF90191838083CE018C599F4F39
:100400009E012C593F4FF901208131812150310942
:10041000FC0131832083CE018C599F4FFC018081E8
:100420009181892BA1F67BC08E010C591F4FCE0103
:10043000805A9F4FFC0160817181828193810E946B
:100440009B15DC01CB01F80191838083CE01885993
:100450009F4F9E012C593F4FF90120813181FC01B2
:1004600031832083CE0188599F4FFC018081918187
:100470000197F1F79E0128593F4FF901918380833D
:100480004EC0CE018D5A9F4F20E030E04FE753E43D
:10049000FC0160817181828193810E947916181616
:1004A0006CF58E0106591F4FCE01895A9F4FFC01F2
:1004B00060817181828193810E949B15DC01CB0157
:1004C000F80191838083CE0184599F4F9E01265964
:1004D0003F4FF90120813181FC0131832083CE011E
:1004E00084599F4FFC01808191810197F1F79E0112
:1004F00024593F4FF9019183808328C08E01055A0A
:100500001F4FCE018D5A9F4FFC0160817181828106
:1005100093810E949B15DC01CB01F8018083CE0101
:1005200082599F4F9E01255A3F4FF9012081FC01BE
:100530002083CE0182599F4FFC018081282F2A956C
:10054000F1F7CE0182599F4FFC0120838BE290E0AE
:100550002BE230E0F9012081277FFC01208380E03D
:1005600090E0A8E4B3E48D839E83AF83B8872BEA41
:100570003AEA4AEA5EE36D817E818F8198850E9426
:100580007D16DC01CB018FAB98AFA9AFBAAF20E0ED
:1005900030E040E85EE36D817E818F8198850E9426
:1005A0007D16DC01CB018BAF9CAFADAFBEAF20E0C1
:1005B00030E040E85FE36FA978AD89AD9AAD0E9465
:1005C0002A1588231CF481E08FAF18C120E03FEF8B
:1005D0004FE757E46BAD7CAD8DAD9EAD0E947916B3
:1005E00018160CF0CDC020E030E04AE754E46D81ED
:1005F0007E818F8198850E942E15DC01CB019E01A2
:10060000205C3F4FF90180839183A283B3838E01E5
:100610000C5B1F4FCE01805C9F4F20E030E04AE72B
:1006200053E4FC0160817181828193810E947D1677
:10063000DC01CB01F80180839183A283B383CE01D7
:100640008C5B9F4F20E030E040E85FE3FC0160817D
:100650007181828193810E942A1588234CF4CE01F6
:10066000885B9F4F21E030E0FC01318320836DC027
:10067000CE018C5B9F4F20E03FEF4FE757E4FC013A
:1006800060817181828193810E94791618160CF025
:100690004AC0CE01805C9F4F20E030E040E251E450
:1006A000FC0160817181828193810E947D16DC0151
:1006B000CB018E01085B1F4FBC01CD010E949B1531
:1006C000DC01CB01F8019183808324C0CE01865BDD
:1006D0009F4F29E130E0FC0131832083CE01865B0E
:1006E0009F4FFC01808191810197F1F79E01265B6C
:1006F0003F4FF90191838083CE01885B9F4F9E011C
:10070000285B3F4FF9012081318121503109FC01E3
:1007100031832083CE01885B9F4FFC0180819181D2
:10072000892BA1F66BC08E01085B1F4FCE018C5B3D
:100730009F4FFC0160817181828193810E949B1592
:10074000DC01CB01F80191838083CE01845B9F4F54
:100750009E01285B3F4FF90120813181FC013183EB
:100760002083CE01845B9F4FFC01808191810197A2
:10077000F1F79E01245B3F4FF901918380833EC0D6
:1007800020E030E04FE753E46FA978AD89AD9AAD32
:100790000E94791618164CF58E01025B1F4F6BAD47
:1007A0007CAD8DAD9EAD0E949B15DC01CB01F801A7
:1007B00091838083CE01805B9F4F9E01225B3F4FE0
:1007C000F90120813181FC0131832083CE01805BDE
:1007D0009F4FFC01808191810197F1F79E01205B81
:1007E0003F4FF901918380831CC06FA978AD89AD1B
:1007F0009AAD0E949B15DC01CB018FAFCE018E5AC2
:100800009F4F2FADFC012083CE018E5A9F4FFC01DC
:100810008081282F2A95F1F7CE018E5A9F4FFC0137
:1008200020838BE290E02BE230E0F9012081422F1F
:100830004F709E0121593F4FF9012081222F30E056
:1008400022953295307F3227207F3227242BFC01DE
:1008500020838BE290E02BE230E0F90120812860D8
:10086000FC01208380E090E0A0E8BFE389879A87BD
:10087000AB87BC872BEA3AEA4AEA5EE369857A8568
:100880008B859C850E947D16DC01CB018B8F9C8F14
:10089000AD8FBE8F20E030E040E85EE369857A8569
:1008A0008B859C850E947D16DC01CB018F8F98A3E0
:1008B000A9A3BAA320E030E040E85FE36B8D7C8D14
:1008C0008D8D9E8D0E942A1588231CF481E08BA3B8
:1008D000B2C020E03FEF4FE757E46F8D78A189A1C8
:1008E0009AA10E94791618160CF07BC020E030E027
:1008F0004AE754E469857A858B859C850E942E158C
:10090000DC01CB018CA39DA3AEA3BFA320E030E00C
:100910004AE753E46CA17DA18EA19FA10E947D16A0
:10092000DC01CB0188A799A7AAA7BBA720E030E0EC
:1009300040E85FE368A579A58AA59BA50E942A15D2
:1009400088232CF481E090E09DA78CA73FC020E095
:100950003FEF4FE757E468A579A58AA59BA50E94BC
:10096000791618164CF520E030E040E251E46CA115
:100970007DA18EA19FA10E947D16DC01CB01BC014F
:10098000CD010E949B15DC01CB019DA78CA70FC058
:1009900089E190E09FA78EA78EA59FA50197F1F70B
:1009A0009FA78EA78CA59DA501979DA78CA78CA519
:1009B0009DA5892B69F73FC068A579A58AA59BA548
:1009C0000E949B15DC01CB019DA78CA78CA59DA542
:1009D00099AB88AB88A999A90197F1F799AB88AB36
:1009E0002AC020E030E04FE753E46B8D7C8D8D8D85
:1009F0009E8D0E9479161816ACF46F8D78A189A18E
:100A00009AA10E949B15DC01CB019BAB8AAB8AA902
:100A10009BA99DAB8CAB8CA99DA90197F1F79DABD0
:100A20008CAB0FC06B8D7C8D8D8D9E8D0E949B1528
:100A3000DC01CB018BA38BA18EAB8EA98A95F1F73C
:100A40008EAB8BE290E02BE230E0F9012081277F32
:100A5000FC01208380E090E0A0E0B0E48D879E87D9
:100A6000AF87B88B20E030E04AE753E46D857E85A0
:100A70008F8598890E947D16DC01CB01898B9A8B2A
:100A8000AB8BBC8B20E030E040E85FE369897A897A
:100A90008B899C890E942A1588232CF481E090E0A0
:100AA0009E8B8D8B3FC020E03FEF4FE757E4698975
:100AB0007A898B899C890E94791618164CF520E05A
:100AC00030E040E251E46D857E858F8598890E94F3
:100AD0007D16DC01CB01BC01CD010E949B15DC0120
:100AE000CB019E8B8D8B0FC089E190E0988F8F8B0F
:100AF0008F89988D0197F1F7988F8F8B8D899E89BB
:100B000001979E8B8D8B8D899E89892B69F714C0E7
:100B100069897A898B899C890E949B15DC01CB01AC
:100B20009E8B8D8B8D899E899A8F898F898D9A8DC9
:100B30000197F1F79A8F898F0000C159DF4F0FB6E7
:100B4000F894DEBF0FBECDBFDF91CF911F910F9103
:100B500008950F931F93CF93DF93CDB7DEB7CF5692
:100B6000D1090FB6F894DEBF0FBECDBF9E0121594B
:100B70003F4FF90180838BE290E02BE230E0F901F6
:100B80002081422F4F709E0121593F4FF901208152
:100B9000207F242BFC0120838BE290E02BE230E0CD
:100BA000F90120812460FC0120838BE290E02BE29C
:100BB00030E0F90120812860FC01208380E090E092
:100BC000A0E8BFE389839A83AB83BC838E010D5A6F
:100BD0001F4F2BEA3AEA4AEA5EE369817A818B8108
:100BE0009C810E947D16DC01CB01F80180839183FA
:100BF000A283B3838E01095A1F4F20E030E040E802
:100C00005EE369817A818B819C810E947D16DC0183
:100C1000CB01F80180839183A283B383CE018D5AE7
:100C20009F4F20E030E040E85FE3FC01608171818C
:100C3000828193810E942A1588233CF4CE01855A33
:100C40009F4F21E0FC0120832CC1CE01895A9F4F88
:100C500020E03FEF4FE757E4FC0160817181828122
:100C600093810E94791618160CF0CDC020E030E078
:100C70004AE754E469817A818B819C810E942E1518
:100C8000DC01CB019E01245A3F4FF90180839183FF
:100C9000A283B3838E01005A1F4FCE01845A9F4F07
:100CA00020E030E04AE753E4FC01608171818281F9
:100CB00093810E947D16DC01CB01F8018083918332
:100CC000A283B383CE01805A9F4F20E030E040E8FA
:100CD0005FE3FC0160817181828193810E942A150A
:100CE00088234CF4CE018C599F4F21E030E0FC0169
:100CF000318320836DC0CE01805A9F4F20E03FEFAB
:100D00004FE757E4FC0160817181828193810E94E9
:100D1000791618160CF04AC0CE01845A9F4F20E075
:100D200030E040E251E4FC01608171818281938175
:100D30000E947D16DC01CB018E010C591F4FBC01B6
:100D4000CD010E949B15DC01CB01F80191838083CA
:100D500024C0CE018A599F4F29E130E0FC01318344
:100D60002083CE018A599F4FFC0180819181019798
:100D7000F1F79E012A593F4FF90191838083CE01FB
:100D80008C599F4F9E012C593F4FF9012081318191
:100D900021503109FC0131832083CE018C599F4FB2
:100DA000FC0180819181892BA1F67BC08E010C59B9
:100DB0001F4FCE01805A9F4FFC016081718182815B
:100DC00093810E949B15DC01CB01F8019183808304
:100DD000CE0188599F4F9E012C593F4FF901208128
:100DE0003181FC0131832083CE0188599F4FFC0162
:100DF000808191810197F1F79E0128593F4FF901B8
:100E0000918380834EC0CE018D5A9F4F20E030E009
:100E10004FE753E4FC0160817181828193810E94DC
:100E2000791618166CF58E0106591F4FCE01895A96
:100E30009F4FFC0160817181828193810E949B158B
:100E4000DC01CB01F80191838083CE0184599F4F4F
:100E50009E0126593F4FF90120813181FC013183E8
:100E60002083CE0184599F4FFC018081918101979D
:100E7000F1F79E0124593F4FF9019183808328C0E7
:100E80008E01055A1F4FCE018D5A9F4FFC01608184
:100E90007181828193810E949B15DC01CB01F80155
:100EA0008083CE0182599F4F9E01255A3F4FF90101
:100EB0002081FC012083CE0182599F4FFC0180815B
:100EC000282F2A95F1F7CE0182599F4FFC012083EC
:100ED0008BE290E02BE230E0F9012081277FFC01DA
:100EE000208380E090E0A8E4B3E48D839E83AF8309
:100EF000B8872BEA3AEA4AEA5EE36D817E818F8108
:100F000098850E947D16DC01CB018FAB98AFA9AF0D
:100F1000BAAF20E030E040E85EE36D817E818F81F2
:100F200098850E947D16DC01CB018BAF9CAFADAFE5
:100F3000BEAF20E030E040E85FE36FA978AD89AD57
:100F40009AAD0E942A1588231CF481E08FAF18C146
:100F500020E03FEF4FE757E46BAD7CAD8DAD9EAD2C
:100F60000E94791618160CF0CDC020E030E04AE758
:100F700054E46D817E818F8198850E942E15DC015D
:100F8000CB019E01205C3F4FF90180839183A283B6
:100F9000B3838E010C5B1F4FCE01805C9F4F20E01E
:100FA00030E04AE753E4FC016081718182819381E2
:100FB0000E947D16DC01CB01F80180839183A2831E
:100FC000B383CE018C5B9F4F20E030E040E85FE3CD
:100FD000FC0160817181828193810E942A1588239E
:100FE0004CF4CE01885B9F4F21E030E0FC0131835F
:100FF00020836DC0CE018C5B9F4F20E03FEF4FE719
:1010000057E4FC0160817181828193810E9479168D
:1010100018160CF04AC0CE01805C9F4F20E030E0F3
:1010200040E251E4FC0160817181828193810E94E0
:101030007D16DC01CB018E01085B1F4FBC01CD0189
:101040000E949B15DC01CB01F8019183808324C0B1
:10105000CE01865B9F4F29E130E0FC013183208384
:10106000CE01865B9F4FFC01808191810197F1F752
:101070009E01265B3F4FF90191838083CE01885BFF
:101080009F4F9E01285B3F4FF90120813181215004
:101090003109FC0131832083CE01885B9F4FFC0125
:1010A00080819181892BA1F66BC08E01085B1F4F57
:1010B000CE018C5B9F4FFC016081718182819381A5
:1010C0000E949B15DC01CB01F80191838083CE0146
:1010D000845B9F4F9E01285B3F4FF9012081318146
:1010E000FC0131832083CE01845B9F4FFC01808112
:1010F00091810197F1F79E01245B3F4FF9019183A4
:1011000080833EC020E030E04FE753E46FA978AD24
:1011100089AD9AAD0E94791618164CF58E01025BC6
:101120001F4F6BAD7CAD8DAD9EAD0E949B15DC015C
:10113000CB01F80191838083CE01805B9F4F9E019C
:10114000225B3F4FF90120813181FC0131832083F3
:10115000CE01805B9F4FFC01808191810197F1F767
:101160009E01205B3F4FF901918380831CC06FA9D2
:1011700078AD89AD9AAD0E949B15DC01CB018FAF94
:10118000CE018E5A9F4F2FADFC012083CE018E5A87
:101190009F4FFC018081282F2A95F1F7CE018E5AAE
:1011A0009F4FFC0120838BE290E02BE230E0F901BD
:1011B0002081422F4F709E0121593F4FF90120811C
:1011C000222F30E022953295307F3227207F322740
:1011D000242BFC0120838BE290E02BE230E0F9012C
:1011E00020812860FC01208380E090E0A0E8BFE33C
:1011F00089879A87AB87BC872BEA3AEA4AEA5EE39B
:1012000069857A858B859C850E947D16DC01CB01E2
:101210008B8F9C8FAD8FBE8F20E030E040E85EE387
:1012200069857A858B859C850E947D16DC01CB01C2
:101230008F8F98A3A9A3BAA320E030E040E85FE332
:101240006B8D7C8D8D8D9E8D0E942A1588231CF4BC
:1012500081E08BA3B2C020E03FEF4FE757E46F8DF2
:1012600078A189A19AA10E94791618160CF07BC06A
:1012700020E030E04AE754E469857A858B859C85D7
:101280000E942E15DC01CB018CA39DA3AEA3BFA3AE
:1012900020E030E04AE753E46CA17DA18EA19FA13C
:1012A0000E947D16DC01CB0188A799A7AAA7BBA73E
:1012B00020E030E040E85FE368A579A58AA59BA51A
:1012C0000E942A1588232CF481E090E09DA78CA72A
:1012D0003FC020E03FEF4FE757E468A579A58AA516
:1012E0009BA50E94791618164CF520E030E040E2EC
:1012F00051E46CA17DA18EA19FA10E947D16DC010D
:10130000CB01BC01CD010E949B15DC01CB019DA747
:101310008CA70FC089E190E09FA78EA78EA59FA5FF
:101320000197F1F79FA78EA78CA59DA501979DA773
:101330008CA78CA59DA5892B69F73FC068A579A5C9
:101340008AA59BA50E949B15DC01CB019DA78CA7BC
:101350008CA59DA599AB88AB88A999A90197F1F7B0
:1013600099AB88AB2AC020E030E04FE753E46B8DA7
:101370007C8D8D8D9E8D0E9479161816ACF46F8D24
:1013800078A189A19AA10E949B15DC01CB019BAB9E
:101390008AAB8AA99BA99DAB8CAB8CA99DA901970F
:1013A000F1F79DAB8CAB0FC06B8D7C8D8D8D9E8DC1
:1013B0000E949B15DC01CB018BA38BA18EAB8EA968
:1013C0008A95F1F78EAB8BE290E02BE230E0F901E9
:1013D0002081277FFC01208380E090E0A0E0B0E442
:1013E0008D879E87AF87B88B20E030E04AE753E4D3
:1013F0006D857E858F8598890E947D16DC01CB01E5
:10140000898B9A8BAB8BBC8B20E030E040E85FE3AC
:1014100069897A898B899C890E942A1588232CF4F2
:1014200081E090E09E8B8D8B3FC020E03FEF4FE747
:1014300057E469897A898B899C890E9479161816E4
:101440004CF520E030E040E251E46D857E858F85EB
:1014500098890E947D16DC01CB01BC01CD010E9460
:101460009B15DC01CB019E8B8D8B0FC089E190E039
:10147000988F8F8B8F89988D0197F1F7988F8F8B2D
:101480008D899E8901979E8B8D8B8D899E89892B55
:1014900069F714C069897A898B899C890E949B1598
:1014A000DC01CB019E8B8D8B8D899E899A8F898FD4
:1014B000898D9A8D0197F1F79A8F898F0000C15914
:1014C000DF4F0FB6F894DEBF0FBECDBFDF91CF91D7
:1014D0001F910F910895CF93DF93CDB7DEB76C972F
:1014E0000FB6F894DEBF0FBECDBF8AE290E02FEFBB
:1014F000FC01208380E090E0A0EAB1E489839A8334
:10150000AB83BC8320E030E04AE753E469817A8111
:101510008B819C810E947D16DC01CB018B8B9C8B87
:10152000AD8BBE8B20E030E040E85FE36B897C89C7
:101530008D899E890E942A1588232CF481E090E0F1
:10154000988F8F8B3FC020E03FEF4FE757E46B89C8
:101550007C898D899E890E94791618164CF520E0A9
:1015600030E040E251E469817A818B819C810E9464
:101570007D16DC01CB01BC01CD010E949B15DC0175
:10158000CB01988F8F8B0FC089E190E09A8F898F64
:10159000898D9A8D0197F1F79A8F898F8F89988D10
:1015A0000197988F8F8B8F89988D892B69F714C03D
:1015B0006B897C898D899E890E949B15DC01CB01FA
:1015C000988F8F8B8F89988D9C8F8B8F8B8D9C8D17
:1015D0000197F1F79C8F8B8F82E00E94E70088E2F1
:1015E0000E94E7008CE00E94E70086E00E94E7008E
:1015F00081E00E94E70080E090E0A0E0B0E48D830D
:101600009E83AF83B88720E030E04AE753E46D81E2
:101610007E818F8198850E947D16DC01CB018987B0
:101620009A87AB87BC8720E030E040E85FE36985BC
:101630007A858B859C850E942A1588232CF481E06D
:1016400090E09E878D873FC020E03FEF4FE757E453
:1016500069857A858B859C850E94791618164CF5CC
:1016600020E030E040E251E46D817E818F819885F9
:101670000E947D16DC01CB01BC01CD010E949B15AF
:10168000DC01CB019E878D870FC089E190E0988BAC
:101690008F878F8598890197F1F7988B8F878D8534
:1016A0009E8501979E878D878D859E85892B69F7FD
:1016B00014C069857A858B859C850E949B15DC0109
:1016C000CB019E878D878D859E859A8B898B898995
:1016D0009A890197F1F79A8B898B00006C960FB667
:1016E000F894DEBF0FBECDBFDF91CF910895CF93A9
:1016F000DF9300D000D0CDB7DEB79C838B831A82F6
:1017000019820EC089819A812B813C81820F931F9F
:10171000FC0180811EDA89819A8101969A838983EE
:1017200089819A812B813C81820F931FFC018081EA
:10173000882341F700000F900F900F900F90DF91DA
:10174000CF910895CF93DF93CDB7DEB72E970FB625
:10175000F894DEBF0FBECDBF81E00E94E70080E0BD
:1017600090E0A0E0B0E489839A83AB83BC8320E05F
:1017700030E04AE753E469817A818B819C810E9441
:101780007D16DC01CB018D839E83AF83B88720E07B
:1017900030E040E85FE36D817E818F8198850E9413
:1017A0002A1588232CF481E090E09A8789873FC02E
:1017B00020E03FEF4FE757E46D817E818F81988570
:1017C0000E94791618164CF520E030E040E251E412
:1017D00069817A818B819C810E947D16DC01CB011D
:1017E000BC01CD010E949B15DC01CB019A87898742
:1017F0000FC089E190E09C878B878B859C85019742
:10180000F1F79C878B8789859A8501979A878987C5
:1018100089859A85892B69F714C06D817E818F81B6
:1018200098850E949B15DC01CB019A878987898561
:101830009A859E878D878D859E850197F1F79E8776
:101840008D8780E80E94E70000002E960FB6F8947E
:10185000DEBF0FBECDBFDF91CF9108950F931F93D1
:10186000CF93DF9300D000D0CDB7DEB769837A8302
:101870008B839C838091030790910407A0910507B7
:10188000B09106079C01AD0169817A818B819C81B1
:101890000E942A15882309F477C020E030E0A901CE
:1018A00069817A818B819C810E942A15882351F459
:1018B00081E990E021E930E0F90120812870FC0104
:1018C000208309C081E990E021E930E0F90120811D
:1018D0002360FC01208328E539E344E75FE3698165
:1018E0007A818B819C810E942A15882344F488E99F
:1018F00090E02FEF3FEFFC013183208334C020E0E4
:1019000034E244EF56E469817A818B819C810E94A4
:101910007916181634F488E990E0FC0111821082DF
:1019200022C008E910E020E030E040E053E46981A3
:101930007A818B819C810E947D16DC01CB019C0108
:10194000AD0160E074E284EF9AE40E942E15DC01A0
:10195000CB01BC01CD010E949615DC01CB010197A2
:10196000F8019183808384E990E0FC011182108268
:1019700089819A81AB81BC8180930307909304078E
:10198000A0930507B093060700000F900F900F90EB
:101990000F90DF91CF911F910F910895CF93DF9317
:1019A000CDB7DEB780E990E020E4FC01208381E937
:1019B00090E02BE0FC01208360E070E0CB014EDF83
:1019C0000000DF91CF910895CF93DF93CDB7DEB7BD
:1019D00081E890E02BE0FC01208388E890E02FE094
:1019E00030E0FC01318320838FE690E022E0FC01AF
:1019F000208384E890E0FC01118210828091000134
:101A000090910101A0910201B09103018093FF0622
:101A100090930007A0930107B09302078FE590E031
:101A20002FE530E0F90120812068FC0120830000CF
:101A3000DF91CF9108950F931F93CF93DF931F9260
:101A4000CDB7DEB71982A6C08981282F30E0C90141
:101A5000880F991F820F931F880F991F880F991F56
:101A6000885E984FFC0120813181428153818981B8
:101A7000682F70E0CB01880F991F860F971F880F82
:101A8000991F880F991F8C5E984FFC01808191816E
:101A9000A281B381281739074A075B0708F449C0B8
:101AA0008981082F10E08981282F30E0C901880F33
:101AB000991F820F931F880F991F880F991F845EAB
:101AC000984FFC01408151818981282F30E0C90164
:101AD000880F991F820F931F880F991F880F991FD6
:101AE0008E5E984FFC0180819181FA0109959C01DD
:101AF000C801880F991F800F911F880F991F880FA9
:101B0000991F8E5E984FFC01318320838981282F95
:101B100030E0C901880F991F820F931F880F991F0A
:101B2000880F991F885E984FFC01108211821282E3
:101B300013828981682F70E08981282F30E0C901E4
:101B4000880F991F820F931F880F991F880F991F65
:101B5000885E984FFC0180819181A281B38122E04F
:101B600030E040E050E0280F391F4A1F5B1FCB01D7
:101B7000880F991F860F971F880F991F880F991F2D
:101B8000885E984FFC01208331834283538389818F
:101B90008F5F898385E09981981708F455CF0000FD
:101BA0000F90DF91CF911F910F9108951F920F9287
:101BB00000905F000F92112400905B000F922F9312
:101BC0003F934F935F936F937F938F939F93AF93C5
:101BD000BF93EF93FF93CF93DF93CDB7DEB78091A1
:101BE000FF0690910007A0910107B09102070197AD
:101BF000A109B1098093FF0690930007A093010704
:101C0000B09302078091FF0690910007A091010711
:101C1000B0910207892B8A2B8B2B89F40CDF8091E2
:101C2000000190910101A0910201B0910301809304
:101C3000FF0690930007A0930107B09302070000EE
:101C4000DF91CF91FF91EF91BF91AF919F918F91D4
:101C50007F916F915F914F913F912F910F900092E3
:101C60005B000F9000925F000F901F901895CF932C
:101C7000DF9300D000D0CDB7DEB769837A838B8342
:101C80009C8389819A81AB81BC8180930001909370
:101C90000101A0930201B093030180910001909192
:101CA0000101A0910201B09103018093FF0690937E
:101CB0000007A0930107B093020700000F900F9058
:101CC0000F900F90DF91CF910895CF93DF9300D0C5
:101CD000CDB7DEB789836A838981882F90E02A8116
:101CE000222F30E002C0959587952A95E2F7817002
:101CF000992721E0892B09F420E0822F0F900F9083
:101D0000DF91CF910895CF93DF9300D0CDB7DEB7A9
:101D10009A83898389819A81009719F0019771F0DC
:101D200010C080E00E94AB00882319F41A82198247
:101D300008C081E090E09A83898303C01A821982E7
:101D4000000089819A81009709F470C0019709F019
:101D500070C080E00E94C30080934E078091FD0612
:101D6000813061F080914E07853309F061C081E0D8
:101D70008093FD0681E08093FC065AC08091FD06A9
:101D8000813069F480914E07853349F41092FD0645
:101D90001092FC061092FA061092FB064AC080913F
:101DA0004E07823379F48091FA06883730F48091B7
:101DB000FA068F5F8093FA0602C01092FA0610921C
:101DC0004E0737C080914E07813379F48091FA062F
:101DD000882331F08091FA0681508093FA0602C080
:101DE0001092FA0610924E0724C080914E07843359
:101DF00091F48091FB06863058F48091FB068F5F4A
:101E00008093FB068091FA068F5F8093FA0611C0DB
:101E10001092FB060EC080914E07863321F481E0BC
:101E20008093FE0606C01092FA0603C0000001C0AF
:101E3000000089819A810F900F90DF91CF910895D2
:101E4000CF93DF93CDB7DEB7C357D1400FB6F89429
:101E5000DEBF0FBECDBF9E012E583E4FF9019183CC
:101E6000808388E0E5E0F1E0DE01129601900D92BA
:101E70008A95E1F788E7EDE0F1E0DE011A9601903E
:101E80000D928A95E1F7CE018E579F4F28E7E5E83E
:101E9000F1E0DC0101900D922A95E1F7CE01865028
:101EA0009F4F28E7FC01322F11923A95E9F7CE01B6
:101EB00086509F4F20E4FC012283CE0186509F4F25
:101EC00020ECFC012383CE0186509F4F20E4FC01CF
:101ED0002483CE0186509F4F20E8FC01208BCE0149
:101EE00086509F4F20ECFC01218BCE0186509F4FE6
:101EF00020E4FC01228BCE0186509F4F20E4FC01A0
:101F000024A3CE0186509F4F20ECFC0125A3CE01D7
:101F100086509F4F20EEFC0126A3CE0186509F4F96
:101F200020E4FC0127A3CE0186509F4F20E4FC0152
:101F300020AFCE0186509F4F20ECFC0121AFCE0197
:101F400086509F4F20ECFC0122AFCE0186509F4F60
:101F500020E8FC0123AFCE0186509F4F8F5A9F4F40
:101F600020E4FC012083CE0186509F4F8E5A9F4F64
:101F700020ECFC012083CE0186509F4F8D5A9F4F4D
:101F800020E4FC012083CE0186509F4F82599F4F51
:101F900020E4FC012083CE0186509F4F81599F4F42
:101FA00020EEFC012083CE0186509F4F80599F4F29
:101FB00020EEFC012083CE0186509F4F8F589F4F0B
:101FC00020E4FC012083CE018E589E4FFC018081CD
:101FD000918181309105C9F08230910551F1892BB1
:101FE00089F58091FD06813049F4CE018E589E4FCF
:101FF00021E030E0FC01318320832BC0CE018E58DC
:102000009E4FFC011182108224C08091FD06813018
:1020100049F4CE018E589E4F22E030E0FC0131831E
:10202000208317C0CE018E589E4FFC011182108272
:1020300010C0CE018E589E4F21E030E0FC0131836C
:10204000208307C0CE018E589E4FFC011182108262
:102050000000CE018E589E4FFC018081918181301D
:10206000910521F0029709F460C023C18091F80620
:102070009091F90608970CF053C08091F806909162
:10208000F9069E012E5F3F4F820F931FFC01808156
:10209000809350078091FA06282F30E08091F8064F
:1020A0009091F906820F931F9E012E573F4F820F8A
:1020B000931FFC0140818091FA06282F30E0809127
:1020C000F8069091F906820F931F9E01265F3F4FFD
:1020D000820F931FFC018081482B8091FA06282FE4
:1020E00030E08091F8069091F906820F931F9E01CF
:1020F00026503F4F820F931FFC018081842B8093D9
:10210000070780910707809580934F078091F80615
:102110009091F90601969093F9068093F806C9C04C
:102120001092F9061092F806C4C010920807809128
:10213000FB06813061F48091F8069091F9060197D1
:1021400031F482E0898384E08093080760C0809145
:10215000FB06823061F48091F8069091F9060197B0
:1021600031F483E0898388E08093080750C0809130
:10217000FB06833061F48091F8069091F90601978F
:1021800031F484E0898380E18093080740C0809126
:10219000FB06843061F48091F8069091F90601976E
:1021A00031F485E0898380E28093080730C0809114
:1021B000FB06853061F48091F8069091F90601974D
:1021C00031F486E0898380E48093080720C0809101
:1021D000FB06863061F48091F8069091F90601972C
:1021E00031F487E0898380E88093080710C08091EC
:1021F000F8069091F906019731F481E0898382E035
:102200008093080704C081E08983109208078091B9
:10221000070769815ADD882309F442C08091F806D6
:102220009091F9060197E1F58091FA06815080932B
:10223000FA068091FA06282F30E08091F8069091F6
:10224000F906820F931F9E012E573F4F820F931F57
:10225000FC0140818091FA06282F30E08091F80639
:102260009091F906820F931F9E01265F3F4F820FC8
:10227000931FFC018081482B8091FA06282F30E0C3
:102280008091F8069091F906820F931F9E012650C7
:102290003F4F820F931FFC018081842B809307079F
:1022A0009091080780910707892B809580934F07AD
:1022B0000000CE018E589E4FFC0180819181CD5847
:1022C000DE4F0FB6F894DEBF0FBECDBFDF91CF91CA
:1022D0000895CF93DF9300D0CDB7DEB79A8389837B
:1022E00089819A81892B89F48091FD06813061F47E
:1022F00088E290E020915007FC01208382E290E088
:1023000020914F07FC012083000089819A810F9062
:102310000F90DF91CF910895CF93DF9300D0CDB789
:10232000DEB79A83898389819A8181309105C1F0D2
:10233000823091051CF4892B39F03AC08230910526
:10234000D9F0039771F134C08091FD06813029F4F2
:1023500081E090E09A8389832EC01A8219822BC073
:102360008091FD06882319F41A82198224C082E024
:1023700090E09A8389831FC08091FD06882319F419
:102380001A82198218C08091FE06813029F483E0F8
:1023900090E09A8389830FC082E090E09A838983DA
:1023A0000AC082E090E09A8389831092FE0603C0FF
:1023B0001A821982000089819A8181309105D1F0B9
:1023C000823091051CF4892B39F034C0823091059C
:1023D00081F10397E9F02EC0B5D981E00E94E700B2
:1023E0008DEF91E084D980EC0E94E7008CE092E0D0
:1023F0007ED920C0A7D981E00E94E70081E192E068
:1024000076D980EC0E94E7008CE192E070D912C08E
:1024100099D981E00E94E70086E292E068D9809134
:1024200004010E94A905809104018F5F809304013B
:1024300001C0000089819A810F900F90DF91CF91A8
:102440000895EF92FF920F931F93CF93DF9300D0E5
:10245000CDB7DEB79A83898389819A81009719F075
:10246000019769F018C08091FD06813029F481E060
:1024700090E09A83898312C01A8219820FC08091DA
:10248000FD06813029F481E090E09A83898306C0BB
:102490001A82198203C01A821982000089819A81E6
:1024A000009719F00197A1F0AFC0109209071092A0
:1024B0000A0710920B0710920C0710920D0710924A
:1024C0000E0710920F0710921007109211079CC070
:1024D00080910907893408F094C080910A0790918F
:1024E0000B07A0910C07B0910D07BC01CD0151D392
:1024F0007B018C0180910907882F90E0880F991F3C
:10250000880F991F88539C4FFC0180819181A28183
:10251000B3819C01AD01C801B7019CD2882309F0A9
:102520004AC060E070E0CB0199D980910907882FFB
:1025300090E0880F991F880F991F805A9A4FFC01CD
:10254000208131814281538180910E0790910F0744
:10255000A0911007B0911107281739074A075B07A8
:10256000B1F410920A0710920B0710920C07109208
:102570000D07809109078F5F8093090710920E075E
:1025800010920F0710921007109211073CC0809113
:102590000E0790910F07A0911007B0911107C296F6
:1025A000A11DB11D80930E0790930F07A0931007F4
:1025B000B093110728C080910907882F90E0880FF9
:1025C000991F880F991F805D9D4FFC01808191812B
:1025D000A281B381BC01CD0141D980910A079091BC
:1025E0000B07A0910C07B0910D07C296A11DB11D5C
:1025F00080930A0790930B07A0930C07B0930D07E5
:1026000002C010920907000089819A810F900F90F3
:10261000DF91CF911F910F91FF90EF900895CF938D
:10262000DF931F92CDB7DEB719828981282F30E062
:10263000C901880F991F820F931F880F991F880F58
:10264000991F8E5E984FFC01118210828981682F3C
:1026500070E022E030E040E050E0CB01880F991FAD
:10266000860F971F880F991F880F991F8C5E984FB0
:10267000FC0120833183428353838981682F70E07A
:102680008981282F30E0C901880F991F820F931F7D
:10269000880F991F880F991F8C5E984FFC0120812D
:1026A000318142815381CB01880F991F860F971F7B
:1026B000880F991F880F991F885E984FFC0120830F
:1026C0003183428353838981282F30E0C901880FE9
:1026D000991F820F931F880F991F880F991F845E7F
:1026E000984F23E83EE0FC013183208389818F5F8E
:1026F00089838981282F30E0C901880F991F820FB3
:10270000931F880F991F880F991F8E5E984FFC01A9
:10271000118210828981682F70E022E030E040E071
:1027200050E0CB01880F991F860F971F880F991FC4
:10273000880F991F8C5E984FFC0120833183428360
:1027400053838981682F70E08981282F30E0C90187
:10275000880F991F820F931F880F991F880F991F49
:102760008C5E984FFC012081318142815381CB01E5
:10277000880F991F860F971F880F991F880F991F21
:10278000885E984FFC012083318342835383898183
:10279000282F30E0C901880F991F820F931F880FDF
:1027A000991F880F991F845E984F20E23FE0FC013B
:1027B0003183208389818F5F89838981282F30E04D
:1027C000C901880F991F820F931F880F991F880FC7
:1027D000991F8E5E984FFC01118210828981682FAB
:1027E00070E022E030E040E050E0CB01880F991F1C
:1027F000860F971F880F991F880F991F8C5E984F1F
:10280000FC0120833183428353838981682F70E0E8
:102810008981282F30E0C901880F991F820F931FEB
:10282000880F991F880F991F8C5E984FFC0120819B
:10283000318142815381CB01880F991F860F971FE9
:10284000880F991F880F991F885E984FFC0120837D
:102850003183428353838981282F30E0C901880F57
:10286000991F820F931F880F991F880F991F845EED
:10287000984F29E631E1FC013183208389818F5F04
:1028800089838981282F30E0C901880F991F820F21
:10289000931F880F991F880F991F8E5E984FFC0118
:1028A000118210828981682F70E024E630E040E0D8
:1028B00050E0CB01880F991F860F971F880F991F33
:1028C000880F991F8C5E984FFC01208331834283CF
:1028D00053838981682F70E08981282F30E0C901F6
:1028E000880F991F820F931F880F991F880F991FB8
:1028F0008C5E984FFC012081318142815381CB0154
:10290000880F991F860F971F880F991F880F991F8F
:10291000885E984FFC0120833183428353838981F1
:10292000282F30E0C901880F991F820F931F880F4D
:10293000991F880F991F845E984F2CE831E1FC01A4
:102940003183208389818F5F89838981282F30E0BB
:10295000C901880F991F820F931F880F991F880F35
:10296000991F8E5E984FFC01118210828981682F19
:1029700070E024E630E040E050E0CB01880F991F82
:10298000860F971F880F991F880F991F8C5E984F8D
:10299000FC0120833183428353838981682F70E057
:1029A0008981282F30E0C901880F991F820F931F5A
:1029B000880F991F880F991F8C5E984FFC0120810A
:1029C000318142815381CB01880F991F860F971F58
:1029D000880F991F880F991F885E984FFC012083EC
:1029E0003183428353838981282F30E0C901880FC6
:1029F000991F820F931F880F991F880F991F845E5C
:102A0000984F21E232E1FC013183208381E290E0A2
:102A10002FEFFC01208387E290E02FEFFC01208361
:102A200084E290E02FEFFC01208385E290E0FC013E
:102A3000108282E090E0A0E0B0E0BC01CD0117D9A7
:102A40000E94E40C80E00E9466000E946B0A0E94D3
:102A5000CE0CFFCFD9D008F481E008950CD00FC17F
:102A600007D140F0FED030F021F45F3F19F0F0C004
:102A7000511139C1F3C014D198F39923C9F35523E7
:102A8000B1F3951B550BBB27AA2762177307840761
:102A900038F09F5F5F4F220F331F441FAA1FA9F317
:102AA00033D00E2E3AF0E0E830D091505040E69509
:102AB000001CCAF729D0FE2F27D0660F771F881F6A
:102AC000BB1F261737074807AB07B0E809F0BB0B59
:102AD000802DBF01FF2793585F4F2AF09E3F51057D
:102AE00068F0B6C000C15F3FECF3983EDCF386951A
:102AF00077956795B795F7959F5FC9F7880F911DF3
:102B00009695879597F90895E1E0660F771F881FDE
:102B1000BB1F621773078407BA0720F0621B730B91
:102B2000840BBA0BEE1F88F7E095089504D06894E3
:102B3000B111D9C00895BCD088F09F5790F0B92F3B
:102B40009927B751A0F0D1F0660F771F881F991F02
:102B50001AF0BA95C9F712C0B13081F0C3D0B1E014
:102B60000895C0C0672F782F8827B85F39F0B93F24
:102B7000CCF3869577956795B395D9F73EF4909504
:102B80008095709561957F4F8F4F9F4F0895E89482
:102B900009C097FB3EF490958095709561957F4FA5
:102BA0008F4F9F4F9923A9F0F92F96E9BB27939553
:102BB000F695879577956795B795F111F8CFFAF463
:102BC000BB0F11F460FF1BC06F5F7F4F8F4F9F4F94
:102BD00016C0882311F096E911C0772321F09EE8F2
:102BE000872F762F05C0662371F096E8862F70E058
:102BF00060E02AF09A95660F771F881FDAF7880F32
:102C00009695879597F90895990F0008550FAA0B87
:102C1000E0E8FEEF16161706E807F907C0F01216EF
:102C20001306E407F50798F0621B730B840B950BF2
:102C300039F40A2661F0232B242B252B21F4089547
:102C40000A2609F4A140A6958FEF811D811D0895E4
:102C500097F99F6780E870E060E008959FEF80EC4F
:102C6000089500240A9416161706180609060895F2
:102C700000240A9412161306140605060895092E58
:102C80000394000C11F4882352F0BB0F40F4BF2BC7
:102C900011F460FF04C06F5F7F4F8F4F9F4F089507
:102CA00057FD9058440F551F59F05F3F71F04795FD
:102CB000880F97FB991F61F09F3F79F087950895E2
:102CC000121613061406551FF2CF4695F1DF08C001
:102CD000161617061806991FF1CF8695710561051E
:102CE00008940895E894BB2766277727CB0197F9C6
:102CF00008958ADF08F48FEF08950BD0C0CFB1DFBD
:102D000028F0B6DF18F0952309F0A2CFA7CF112441
:102D1000EACFC6DFA0F3959FD1F3950F50E0551F82
:102D2000629FF001729FBB27F00DB11D639FAA2720
:102D3000F00DB11DAA1F649F6627B00DA11D661F6F
:102D4000829F2227B00DA11D621F739FB00DA11D90
:102D5000621F839FA00D611D221F749F3327A00D4A
:102D6000611D231F849F600D211D822F762F6A2FE6
:102D700011249F5750408AF0E1F088234AF0EE0F6B
:102D8000FF1FBB1F661F771F881F91505040A9F778
:102D90009E3F510570F05CCFA6CF5F3FECF3983EAD
:102DA000DCF3869577956795B795F795E7959F5FDF
:102DB000C1F7FE2B880F911D9695879597F9089579
:042DC000F894FFCFB5
:102DC400010000003001020408102040800000408F
:102DD400C040000008000828080000000080C0402F
:102DE40000000000000000000000000000000800D7
:102DF4000040C0E040000404101010100000000067
:102E0400001014000048C8C0800800280008000012
:102E1400202000002820000002060E000E0642C0FA
:102E24004002060E0E000E06020000000000080814
:102E3400000000000002060E1E1E0040E0E24000FA
:102E44000E3E183E0E010141C1410101090109294B
:102E5400090101010187C74101010F0F01010F0F92
:102E640001010F0F010109010141C1E04001050504
:102E74001111111101010000001115010149C9C10D
:102E840081090129010901012121010129210101EE
:102E940003070F010F0743C14103070F0F000F077B
:102EA4000301070701010909010101070703070FCE
:102EB4001F1F0141E1E3410101010101015072655C
:102EC400737320537461727420746F00506C617951
:102ED4000057454C434F4D4520544F004D61726996
:102EE4006F5F52756E0053636F72652069732000C3
:102EF4000000A5430000A5430000A5430000834350
:102F04000000A5430000C443000044430000834381
:102F1400000044430000244300005C430000764367
:102F24000000694300005C43000044430000A543E3
:102F34000000C4430000DC430080AE430000C443EF
:102F44000000A543000083430000C543000077430D
:102F540000008343000044430000244300005C431A
:102F6400000076430000694300005C4300004443D2
:102F74000000A5430000C4430000DC430080AE43CE
:102F84000000C4430000A543000083430000C54380
:102F9400000077430000C4430000B9430080AE43FF
:102FA40000809B430000A54300004F4300005C43A6
:102FB4000000834300005C4300008343000093430C
:102FC4000000C4430000B9430080AE4300809B432B
:102FD4000000A54300C0024400C0024400C00244F3
:102FE4000000C4430000B9430080AE4300809B430B
:102FF4000000A54300004F4300005C4300008343EE
:1030040000005C43000083430000934300809B4323
:103014000000944300008343000083430000834383
:103024000000934300005C430000444300008343DA
:103034000000834300008343000083430000934364
:103044000000A5430000DC430000C44300008343A8
:103054000000834300008343000083430000934344
:103064000000A5430000834300005C430000444388
:103074000000A5430000A5430000A54300008343CE
:103084000000A5430000C4430000C8420000C84239
:103094000000C8420000C8420000C8420000C84204
:1030A4000000C84200009643000096430000964387
:1030B400000096430000C842000048430000C84294
:1030C4000000C8420000C8420000C8420000C842D4
:1030D4000000C8420000C8420000C8420000C842C4
:1030E4000000C8420000C842000096430000964316
:1030F40000009643000096430000C8420000484385
:103104000000C8420000C8420000C8420000C84293
:103114000000C8420000C8420000C8420000C84283
:103124000000C8420000C8420000C8420000C84273
:103134000000C8420000C8420000C8420000C84263
:103144000000C8420000C8420000C8420000C84253
:103154000000C8420000C8420000C8420000C84243
:103164000000C8420000C8420000C8420000C84233
:103174000000C8420000C8420000C8420000C84223
:103184000000C8420000C8420000C8420000C84213
:103194000000C8420000C8420000C8420000C84203
:1031A4000000C8420000C842000096430000C84224
:1031B4000000C8420000C8420000C8420000484362
:1031C4000000C8420000C8420000C8420000C842D3
:1031D4000000C8420000C8420000C8420000C842C3
:1031E4000000C8420000C8420000C8420000C842B3
:1031F4000000C8420000C8420000484300004843A1
:10320400000048430000C8420000C8420000C84211
:103214000000C8420000C8420000C8420000C84282
:10322400640000002C0100002C0100006400000078
:103234002C010000BC020000BC0200002C010000B4
:103244002C0100002C010000640000002C0100008F
:10325400000000002C010000C8000000C8000000AD
:10326400C80000002C010000640000002C010000D4
:103274002C0100006400000064000000F401000060
:103284002C0100002C0100002C010000640000004F
:103294002C010000000000002C010000C800000008
:1032A400C8000000C80000002C01000064000000F9
:1032B4002C0100002C0100006400000064000000E8
:1032C400F4010000640000006400000064000000D9
:1032D4002C0100002C0100006400000064000000C8
:1032E4002C0100006400000064000000F4010000F0
:1032F4006400000064000000640000002C01000071
:103304002C0100002C0100004C04000064000000AB
:103314006400000064000000640000002C01000050
:103324002C01000064000000640000002C01000077
:10333400640000006400000064000000F401000068
:103344002C010000640000002C0100006400000057
:103354002C01000032000000BC02000064000000E8
:103364002C0100002C010000640000006400000037
:10337400BC0200002C010000F40100006400000005
:103384002C0100002C010000640000002C0100004E
:10339400280000002800000028000000BC020000F3
:1033A400640000002C0100002C01000064000000F7
:0833B4002C010000BC02000026
:00000001FF
