S01200006D61696E5F6C6F6769632E7372656300
S113000045C0000060C000005EC000005CC000008D
S11300105AC0000058C0000056C0000054C0000080
S113002052C0000050C000004EC000004CC0000090
S11300304AC00000BCC1000046C0000044C000002B
S113004042C0000040C000003EC000003CC00000B0
S11300503AC0000038C0000036C0000034C00000C0
S113006032C0000030C000002EC000002CC00000D0
S11300702AC0000028C0000026C0000024C00000E0
S113008022C0000020C000001EC0000011241FBEBA
S1130090CFEFD0E4DEBFCDBF11E0A0E0B1E0EAE9EC
S11300A0F8E000E00BBF02C007900D92A430B10746
S11300B0D9F721E0A4E0B1E001C01D92AF32B2074C
S11300C0E1F7A6D2E8C39CCFCF93DF931F92CDB7BD
S11300D0DEB7898389818130E1F081EC90E021EC05
S11300E030E0F90120812861FC01208382EC90E05A
S11300F022EC30E0F90120812660FC01208384ECAD
S113010090E023E3FC01208385EC90E0FC01108265
S11301101BC089EC90E029EC30E0F90120812861D2
S1130120FC0120838AEC90E02AEC30E0F901208184
S11301302660FC0120838CEC90E023E3FC01208307
S11301408DEC90E0FC01108200000F90DF91CF91C4
S11301500895CF93DF931F92CDB7DEB7898389814A
S1130160813031F080EC90E0FC018081807805C022
S113017088EC90E0FC01808180780F90DF91CF9132
S11301800895CF93DF931F92CDB7DEB7898389811A
S1130190813061F0000080EC90E0FC0180818823D4
S11301A0D4F786EC90E0FC0180810BC0000088EC61
S11301B090E0FC0180818823D4F78EEC90E0FC0170
S11301C080810F90DF91CF910895CF93DF93CDB7C6
S11301D0DEB781E890E02BE0FC01208388E890E022
S11301E02FE030E0FC01318320838FE690E022E0B1
S11301F0FC01208384E890E0FC011182108280914C
S1130200000190910101A0910201B091030180933A
S1130210040190930501A0930601B09307018FE5B3
S113022090E02FE530E0F90120812068FC01208373
S11302300000DF91CF9108950F931F93CF93DF9325
S11302401F92CDB7DEB71982A6C08981282F30E06E
S1130250C901880F991F820F931F880F991F880F58
S1130260991F825F9E4FFC0120813181428153811D
S11302708981682F70E0CB01880F991F860F971F23
S1130280880F991F880F991F865F9E4FFC018081FC
S11302909181A281B381281739074A075B0708F4C3
S11302A049C08981082F10E08981282F30E0C901D5
S11302B0880F991F820F931F880F991F880F991F0A
S11302C08E5E9E4FFC01408151818981282F30E050
S11302D0C901880F991F820F931F880F991F880FD8
S11302E0991F885F9E4FFC0180819181FA010995D5
S11302F09C01C801880F991F800F911F880F991FB7
S1130300880F991F885F9E4FFC0131832083898168
S1130310282F30E0C901880F991F820F931F880F7F
S1130320991F880F991F825F9E4FFC0110821182D2
S1130330128213828981682F70E08981282F30E02E
S1130340C901880F991F820F931F880F991F880F67
S1130350991F825F9E4FFC0180819181A281B381AC
S113036022E330E040E050E0280F391F4A1F5B1FB2
S1130370CB01880F991F860F971F880F991F880F2D
S1130380991F825F9E4FFC012083318342835383F4
S113039089818F5F898383E09981981708F455CF09
S11303A000000F90DF91CF911F910F9108951F923C
S11303B00F9200905F000F92112400905B000F9247
S11303C02F933F934F935F936F937F938F939F9359
S11303D0AF93BF93EF93FF93CF93DF93CDB7DEB784
S11303E08091040190910501A0910601B09107014B
S11303F00197A109B1098093040190930501A09389
S11304000601B09307018091040190910501A09128
S11304100601B0910701892B8A2B8B2B89F40CDF01
S11304208091000190910101A0910201B09103011A
S11304308093040190930501A0930601B0930701F2
S11304400000DF91CF91FF91EF91BF91AF919F9108
S11304508F917F916F915F914F913F912F910F9069
S113046000925B000F9000925F000F901F90189510
S1130470CF93DF9300D000D0CDB7DEB769837A8302
S11304808B839C8389819A81AB81BC818093000199
S113049090930101A0930201B093030180910001A4
S11304A090910101A0910201B09103018093040194
S11304B090930501A0930601B093070100000F90EB
S11304C00F900F900F90DF91CF910895CF93DF930A
S11304D000D0CDB7DEB79A83898389819A8100974A
S11304E019F0019769F00FC080E033DE882319F416
S11304F01A82198208C081E090E09A83898303C03C
S11305001A821982000089819A81009789F10197E2
S113051081F580E036DE80932C0180912C018133BB
S113052021F481E080932D0124C080912C01823339
S113053021F482E080932D011CC080912C0183332F
S113054021F484E080932D0114C080912C01843324
S113055021F488E080932D010CC080912C01853317
S113056021F480E180932D0104C010922D0101C07B
S1130570000089819A810F900F90DF91CF910895A7
S1130580CF93DF9300D0CDB7DEB79A838983898177
S11305909A81009719F0019749F00EC084E0809386
S11305A02E0181E090E09A83898306C088E08093DD
S11305B02E011A821982000089819A810F900F906E
S11305C0DF91CF910895CF93DF9300D0CDB7DEB7FD
S11305D09A83898389819A81892B99F488E290E0AE
S11305E020912E01222F30E022953295307F322740
S11305F0207F3227322F20912D01232BFC012083D1
S1130600000089819A810F900F90DF91CF91089516
S1130610CF93DF931F92CDB7DEB719828981282F3C
S113062030E0C901880F991F820F931F880F991F0B
S1130630880F991F885F9E4FFC0111821082898167
S1130640682F70E020E931E040E050E0CB01880FF2
S1130650991F860F971F880F991F880F991F865F10
S11306609E4FFC0120833183428353838981682F09
S113067070E08981282F30E0C901880F991F820F0B
S1130680931F880F991F880F991F865F9E4FFC0147
S11306902081318142815381CB01880F991F860FBC
S11306A0971F880F991F880F991F825F9E4FFC0127
S11306B020833183428353838981282F30E0C90109
S11306C0880F991F820F931F880F991F880F991FF6
S11306D08E5E9E4F26E632E0FC01318320838981C1
S11306E08F5F89838981282F30E0C901880F991F82
S11306F0820F931F880F991F880F991F885F9E4F41
S1130700FC01118210828981682F70E028EE33E0A9
S113071040E050E0CB01880F991F860F971F880F88
S1130720991F880F991F865F9E4FFC012083318398
S1130730428353838981682F70E08981282F30E0B8
S1130740C901880F991F820F931F880F991F880F63
S1130750991F865F9E4FFC01208131814281538124
S1130760CB01880F991F860F971F880F991F880F39
S1130770991F825F9E4FFC01208331834283538300
S11307808981282F30E0C901880F991F820F931F98
S1130790880F991F880F991F8E5E9E4F20EC32E0C0
S11307A0FC013183208389818F5F89838981282F8C
S11307B030E0C901880F991F820F931F880F991F7A
S11307C0880F991F885F9E4FFC01118210828981D6
S11307D0682F70E028EC30E040E050E0CB01880F57
S11307E0991F860F971F880F991F880F991F865F7F
S11307F09E4FFC0120833183428353838981682F78
S113080070E08981282F30E0C901880F991F820F79
S1130810931F880F991F880F991F865F9E4FFC01B5
S11308202081318142815381CB01880F991F860F2A
S1130830971F880F991F880F991F825F9E4FFC0195
S113084020833183428353838981282F30E0C90177
S1130850880F991F820F931F880F991F880F991F64
S11308608E5E9E4F23EE32E0FC013183208387E2CB
S113087090E02FEFFC01208388E290E0FC011082DD
S113088082E390E0A0E0B0E0BC01CD01F1DD9DDCAD
S10D089080E01ADCFFCFF894FFCFDC
S107089A0100000055
S9030000FC
