S01200006D61696E5F6C6F6769632E7372656300
S113000045C0000060C000005EC000005CC000008D
S11300105AC0000058C0000056C0000054C0000080
S113002052C0000050C000004EC000004CC0000090
S11300304AC00000BCC1000046C0000044C000002B
S113004042C0000040C000003EC000003CC00000B0
S11300503AC0000038C0000036C0000034C00000C0
S113006032C0000030C000002EC000002CC00000D0
S11300702AC0000028C0000026C0000024C00000E0
S113008022C0000020C000001EC0000011241FBEBA
S1130090CFEFD0E4DEBFCDBF11E0A0E0B1E0EEEBE6
S11300A0FAE000E00BBF02C007900D92AC3FB1072D
S11300B0D9F722E0ACEFB1E001C01D92AD31B20737
S11300C0E1F71BD4FAC49CCFCF93DF931F92CDB733
S11300D0DEB7898389818130E1F081EC90E021EC05
S11300E030E0F90120812861FC01208382EC90E05A
S11300F022EC30E0F90120812660FC01208384ECAD
S113010090E023E3FC01208385EC90E0FC01108265
S11301101BC089EC90E029EC30E0F90120812861D2
S1130120FC0120838AEC90E02AEC30E0F901208184
S11301302660FC0120838CEC90E023E3FC01208307
S11301408DEC90E0FC01108200000F90DF91CF91C4
S11301500895CF93DF931F92CDB7DEB7898389814A
S1130160813031F080EC90E0FC018081807805C022
S113017088EC90E0FC01808180780F90DF91CF9132
S11301800895CF93DF931F92CDB7DEB7898389811A
S1130190813061F0000080EC90E0FC0180818823D4
S11301A0D4F786EC90E0FC0180810BC0000088EC61
S11301B090E0FC0180818823D4F78EEC90E0FC0170
S11301C080810F90DF91CF910895CF93DF93CDB7C6
S11301D0DEB781E890E02BE0FC01208388E890E022
S11301E02FE030E0FC01318320838FE690E022E0B1
S11301F0FC01208384E890E0FC011182108280914C
S1130200000190910101A0910201B091030180933A
S1130210FE019093FF01A0930002B09301028FE5C9
S113022090E02FE530E0F90120812068FC01208373
S11302300000DF91CF9108950F931F93CF93DF9325
S11302401F92CDB7DEB71982A6C08981282F30E06E
S1130250C901880F991F820F931F880F991F880F58
S1130260991F885F9D4FFC01208131814281538118
S11302708981682F70E0CB01880F991F860F971F23
S1130280880F991F880F991F8C5F9D4FFC018081F7
S11302909181A281B381281739074A075B0708F4C3
S11302A049C08981082F10E08981282F30E0C901D5
S11302B0880F991F820F931F880F991F880F991F0A
S11302C0845F9D4FFC01408151818981282F30E05A
S11302D0C901880F991F820F931F880F991F880FD8
S11302E0991F8E5F9D4FFC0180819181FA010995D0
S11302F09C01C801880F991F800F911F880F991FB7
S1130300880F991F8E5F9D4FFC0131832083898163
S1130310282F30E0C901880F991F820F931F880F7F
S1130320991F880F991F885F9D4FFC0110821182CD
S1130330128213828981682F70E08981282F30E02E
S1130340C901880F991F820F931F880F991F880F67
S1130350991F885F9D4FFC0180819181A281B381A7
S11303602AE030E040E050E0280F391F4A1F5B1FAD
S1130370CB01880F991F860F971F880F991F880F2D
S1130380991F885F9D4FFC012083318342835383EF
S113039089818F5F898382E09981981708F455CF0A
S11303A000000F90DF91CF911F910F9108951F923C
S11303B00F9200905F000F92112400905B000F9247
S11303C02F933F934F935F936F937F938F939F9359
S11303D0AF93BF93EF93FF93CF93DF93CDB7DEB784
S11303E08091FE019091FF01A0910002B091010261
S11303F00197A109B1098093FE019093FF01A09395
S11304000002B09301028091FE019091FF01A0913E
S11304100002B0910102892B8A2B8B2B89F40CDF0B
S11304208091000190910101A0910201B09103011A
S11304308093FE019093FF01A0930002B093010208
S11304400000DF91CF91FF91EF91BF91AF919F9108
S11304508F917F916F915F914F913F912F910F9069
S113046000925B000F9000925F000F901F90189510
S1130470CF93DF9300D000D0CDB7DEB769837A8302
S11304808B839C8389819A81AB81BC818093000199
S113049090930101A0930201B093030180910001A4
S11304A090910101A0910201B09103018093FE019A
S11304B09093FF01A0930002B093010200000F90FB
S11304C00F900F900F90DF91CF910895CF93DF930A
S11304D000D0CDB7DEB789836A838981882F90E005
S11304E02A81222F30E002C0959587952A95E2F75C
S11304F08170992721E0892B09F420E0822F0F9045
S11305000F90DF91CF910895CF93DF9300D0CDB7B3
S1130510DEB79A83898389819A81009719F00197BC
S113052069F00FC080E015DE882319F41A8219825D
S113053008C081E090E09A83898303C01A821982FB
S1130540000089819A81009779F1019771F580E023
S113055018DE80931A0280911A02823379F4809112
S11305601B02883730F480911B028F5F80931B023B
S113057002C010921B0210921A0217C080911A0234
S1130580813379F480911B02882331F080911B021E
S1130590815080931B0202C010921B0210921A0217
S11305A004C010921B0201C0000089819A810F903F
S11305B00F90DF91CF910895CF93DF93CDB7DEB73E
S11305C0C557D1400FB6F894DEBF0FBECDBF88E04B
S11305D0E4E0F1E0DE01169601900D928A95E1F7D0
S11305E01A8288E7ECE0F1E0DE011E9601900D929C
S11305F08A95E1F7CE018A579F4F28E7E4E8F1E0B6
S1130600DC0101900D922A95E1F7CE0182509F4FB3
S113061028E7FC01322F11923A95E9F7CE01825076
S11306209F4F20E4FC012283CE0182509F4F20EC97
S1130630FC012383CE0182509F4F20E4FC012483DC
S1130640CE0182509F4F20E8FC01208BCE018250C6
S11306509F4F20ECFC01218BCE0182509F4F20E460
S1130660FC01228BCE0182509F4F20E4FC0124A385
S1130670CE0182509F4F20ECFC0125A3CE01825075
S11306809F4F20EEFC0126A3CE0182509F4F20E411
S1130690FC0127A3CE0182509F4F20E4FC0120AF30
S11306A0CE0182509F4F20ECFC0121AFCE0182503D
S11306B09F4F20ECFC0122AFCE0182509F4F20E8D7
S11306C0FC0123AFCE0182509F4F8F5A9F4F20E4ED
S11306D0FC012083CE0182509F4F8E5A9F4F20EC05
S11306E0FC012083CE0182509F4F8D5A9F4F20E4FE
S11306F0FC012083CE0182509F4F82599F4F20E4FA
S1130700FC012083CE0182509F4F81599F4F20EEE0
S1130710FC012083CE0182509F4F80599F4F20EED1
S1130720FC012083CE0182509F4F8F589F4F20E4BD
S1130730FC0120838091FC019091FD0108970CF04D
S1130740A2C088E290E02091FC013091FD01AE014D
S11307504A5F5F4F240F351FF9012081FC0120837C
S113076019828091FC019091FD01019719F482E0B6
S1130770898301C0198280911B02282F30E0809167
S1130780FC019091FD01820F931F9E012A573F4F58
S1130790820F931FFC01408180911B02282F30E0BF
S11307A08091FC019091FD01820F931F9E01225FB5
S11307B03F4F820F931FFC018081482B80911B02C5
S11307C0282F30E08091FC019091FD01820F931F4E
S11307D09E0122503F4F820F931FFC018081842B86
S11307E08B8361E08B8172DE8823B9F18091FC01F7
S11307F09091FD01019781F584E0898362E08B810A
S113080065DE882351F18091FC019091FD010197EF
S113081009F588E0898363E08B8158DE8823E9F059
S11308208091FC019091FD01019791F480E189830D
S113083064E08B814BDE882381F08091FC019091F0
S1130840FD01019719F480E2898307C0198205C06C
S1130850198203C0198201C019829B818981892B65
S11308608C838C8180958D8382E290E02D81FC01C4
S113087020838091FC019091FD0101969093FD01EC
S11308808093FC0104C01092FD011092FC01000051
S1130890CB58DE4F0FB6F894DEBF0FBECDBFDF914D
S11308A0CF910895CF93DF9300D0CDB7DEB79A836D
S11308B0898389819A81009719F0019731F00AC0E0
S11308C081E090E09A83898308C081E090E09A8374
S11308D0898303C01A821982000089819A81009752
S11308E021F0019719F468DE01C0000089819A8122
S11308F00F900F90DF91CF910895CF93DF931F92C4
S1130900CDB7DEB719828981282F30E0C901880F5D
S1130910991F820F931F880F991F880F991F8E5F4D
S11309209D4FFC01118210828981682F70E022E0C2
S113093030E040E050E0CB01880F991F860F971FED
S1130940880F991F880F991F8C5F9D4FFC0120838E
S11309503183428353838981682F70E08981282FF2
S113096030E0C901880F991F820F931F880F991FC8
S1130970880F991F8C5F9D4FFC012081318142813A
S11309805381CB01880F991F860F971F880F991FDA
S1130990880F991F885F9D4FFC0120833183428318
S11309A053838981282F30E0C901880F991F820F52
S11309B0931F880F991F880F991F845F9D4F24E808
S11309C032E0FC013183208389818F5F89838981AF
S11309D0282F30E0C901880F991F820F931F880FB9
S11309E0991F880F991F8E5F9D4FFC011182108201
S11309F08981682F70E022E030E040E050E0CB01D4
S1130A00880F991F860F971F880F991F880F991FAA
S1130A108C5F9D4FFC012083318342835383898102
S1130A20682F70E08981282F30E0C901880F991F51
S1130A30820F931F880F991F880F991F8C5F9D4FFA
S1130A40FC012081318142815381CB01880F991FA0
S1130A50860F971F880F991F880F991F885F9D4FD6
S1130A60FC0120833183428353838981282F30E022
S1130A70C901880F991F820F931F880F991F880F30
S1130A80991F845F9D4F22E534E0FC01318320836C
S1130A9081E290E02FEFFC01208387E290E02FEFCA
S1130AA0FC0120838AE090E0A0E0B0E0BC01CD012D
S1110AB0DFDC8BDB80E008DBFFCFF894FFCFA8
S1130ABE010000000102040810204080000040C024
S1130ACE40000008000828080000000080C0400014
S1130ADE00000000000000000000000000080000FC
S1130AEE40C0E0400004041010101000000000008C
S1130AFE1014000048C8C080080028000800002018
S1130B0E2000002820000002060E000E0642C040FF
S1130B1E02060E0E000E0602000000000008080079
S1130B2E0000000002060E1E1E0040E0E240000E11
S1130B3E3E183E0E010141C1410101090109290975
S1130B4E0101010187C74101010F0F01010F0F01BF
S1130B5E010F0F010109010141C1E0400105051119
S1130B6E11111101010000001115010149C9C181C2
S1130B7E0901290109010121210101292101010391
S1130B8E070F010F0743C14103070F0F000F0703A0
S1130B9E01070701010909010101070703070F1FD7
S10F0BAE1F0141E1E341010101010101CB
S9030000FC
